{
  "contractName": "Registry",
  "abi": [
    {
      "inputs": [],
      "stateMutability": "nonpayable",
      "type": "constructor"
    },
    {
      "inputs": [
        {
          "internalType": "address",
          "name": "",
          "type": "address"
        },
        {
          "internalType": "uint256",
          "name": "",
          "type": "uint256"
        }
      ],
      "name": "adminMapsProperty",
      "outputs": [
        {
          "internalType": "uint256",
          "name": "surveyNo",
          "type": "uint256"
        },
        {
          "internalType": "string",
          "name": "state",
          "type": "string"
        },
        {
          "internalType": "string",
          "name": "district",
          "type": "string"
        },
        {
          "internalType": "string",
          "name": "city",
          "type": "string"
        },
        {
          "internalType": "address",
          "name": "AllocatedTo",
          "type": "address"
        }
      ],
      "stateMutability": "view",
      "type": "function",
      "constant": true
    },
    {
      "inputs": [
        {
          "internalType": "address",
          "name": "",
          "type": "address"
        }
      ],
      "name": "admins",
      "outputs": [
        {
          "internalType": "address",
          "name": "adminAddress",
          "type": "address"
        },
        {
          "internalType": "string",
          "name": "city",
          "type": "string"
        },
        {
          "internalType": "string",
          "name": "district",
          "type": "string"
        },
        {
          "internalType": "string",
          "name": "state",
          "type": "string"
        }
      ],
      "stateMutability": "view",
      "type": "function",
      "constant": true
    },
    {
      "inputs": [
        {
          "internalType": "string",
          "name": "",
          "type": "string"
        },
        {
          "internalType": "string",
          "name": "",
          "type": "string"
        },
        {
          "internalType": "string",
          "name": "",
          "type": "string"
        },
        {
          "internalType": "uint256",
          "name": "",
          "type": "uint256"
        }
      ],
      "name": "landDetalsMap",
      "outputs": [
        {
          "internalType": "address",
          "name": "owner",
          "type": "address"
        },
        {
          "internalType": "string",
          "name": "tendertype",
          "type": "string"
        },
        {
          "internalType": "string",
          "name": "tenderName",
          "type": "string"
        },
        {
          "internalType": "address",
          "name": "admin",
          "type": "address"
        },
        {
          "internalType": "string",
          "name": "ipfsuri",
          "type": "string"
        },
        {
          "internalType": "uint256",
          "name": "propertyId",
          "type": "uint256"
        },
        {
          "internalType": "uint256",
          "name": "surveyNumber",
          "type": "uint256"
        },
        {
          "internalType": "uint256",
          "name": "index",
          "type": "uint256"
        },
        {
          "internalType": "bool",
          "name": "registered",
          "type": "bool"
        },
        {
          "internalType": "uint256",
          "name": "marketValue",
          "type": "uint256"
        },
        {
          "internalType": "bool",
          "name": "markAvailable",
          "type": "bool"
        },
        {
          "internalType": "uint256",
          "name": "noOfRequests",
          "type": "uint256"
        }
      ],
      "stateMutability": "view",
      "type": "function",
      "constant": true
    },
    {
      "inputs": [
        {
          "internalType": "address",
          "name": "",
          "type": "address"
        },
        {
          "internalType": "uint256",
          "name": "",
          "type": "uint256"
        }
      ],
      "name": "ownerMapsProperty",
      "outputs": [
        {
          "internalType": "uint256",
          "name": "surveyNumber",
          "type": "uint256"
        },
        {
          "internalType": "string",
          "name": "state",
          "type": "string"
        },
        {
          "internalType": "string",
          "name": "district",
          "type": "string"
        },
        {
          "internalType": "string",
          "name": "city",
          "type": "string"
        }
      ],
      "stateMutability": "view",
      "type": "function",
      "constant": true
    },
    {
      "inputs": [
        {
          "internalType": "address",
          "name": "",
          "type": "address"
        },
        {
          "internalType": "uint256",
          "name": "",
          "type": "uint256"
        }
      ],
      "name": "requestedLands",
      "outputs": [
        {
          "internalType": "uint256",
          "name": "surveyNumber",
          "type": "uint256"
        },
        {
          "internalType": "string",
          "name": "state",
          "type": "string"
        },
        {
          "internalType": "string",
          "name": "district",
          "type": "string"
        },
        {
          "internalType": "string",
          "name": "city",
          "type": "string"
        }
      ],
      "stateMutability": "view",
      "type": "function",
      "constant": true
    },
    {
      "inputs": [],
      "name": "superAdmin",
      "outputs": [
        {
          "internalType": "address",
          "name": "",
          "type": "address"
        }
      ],
      "stateMutability": "view",
      "type": "function",
      "constant": true
    },
    {
      "inputs": [],
      "name": "totalAdmins",
      "outputs": [
        {
          "internalType": "uint256",
          "name": "",
          "type": "uint256"
        }
      ],
      "stateMutability": "view",
      "type": "function",
      "constant": true
    },
    {
      "inputs": [],
      "name": "totalTendors",
      "outputs": [
        {
          "internalType": "uint256",
          "name": "",
          "type": "uint256"
        }
      ],
      "stateMutability": "view",
      "type": "function",
      "constant": true
    },
    {
      "inputs": [],
      "name": "totalVendors",
      "outputs": [
        {
          "internalType": "uint256",
          "name": "",
          "type": "uint256"
        }
      ],
      "stateMutability": "view",
      "type": "function",
      "constant": true
    },
    {
      "inputs": [
        {
          "internalType": "address",
          "name": "",
          "type": "address"
        }
      ],
      "name": "userProfile",
      "outputs": [
        {
          "internalType": "address",
          "name": "userAddr",
          "type": "address"
        },
        {
          "internalType": "string",
          "name": "fullName",
          "type": "string"
        },
        {
          "internalType": "string",
          "name": "gender",
          "type": "string"
        },
        {
          "internalType": "string",
          "name": "email",
          "type": "string"
        },
        {
          "internalType": "string",
          "name": "contact",
          "type": "string"
        },
        {
          "internalType": "string",
          "name": "residentialAddr",
          "type": "string"
        },
        {
          "internalType": "uint256",
          "name": "totalIndices",
          "type": "uint256"
        },
        {
          "internalType": "uint256",
          "name": "requestIndices",
          "type": "uint256"
        }
      ],
      "stateMutability": "view",
      "type": "function",
      "constant": true
    },
    {
      "inputs": [
        {
          "internalType": "address",
          "name": "",
          "type": "address"
        }
      ],
      "name": "vendors",
      "outputs": [
        {
          "internalType": "address",
          "name": "vendorAddress",
          "type": "address"
        },
        {
          "internalType": "string",
          "name": "city",
          "type": "string"
        },
        {
          "internalType": "string",
          "name": "district",
          "type": "string"
        },
        {
          "internalType": "string",
          "name": "state",
          "type": "string"
        },
        {
          "internalType": "string",
          "name": "year",
          "type": "string"
        },
        {
          "internalType": "string",
          "name": "vendortype",
          "type": "string"
        },
        {
          "internalType": "uint256",
          "name": "rating",
          "type": "uint256"
        },
        {
          "internalType": "uint256",
          "name": "noofRaters",
          "type": "uint256"
        }
      ],
      "stateMutability": "view",
      "type": "function",
      "constant": true
    },
    {
      "inputs": [
        {
          "internalType": "address",
          "name": "_adminAddr",
          "type": "address"
        },
        {
          "internalType": "string",
          "name": "_state",
          "type": "string"
        },
        {
          "internalType": "string",
          "name": "_district",
          "type": "string"
        },
        {
          "internalType": "string",
          "name": "_city",
          "type": "string"
        },
        {
          "internalType": "string",
          "name": "_fullName",
          "type": "string"
        },
        {
          "internalType": "string",
          "name": "_gender",
          "type": "string"
        },
        {
          "internalType": "string",
          "name": "_email",
          "type": "string"
        },
        {
          "internalType": "string",
          "name": "_contact",
          "type": "string"
        },
        {
          "internalType": "string",
          "name": "_residentialAddr",
          "type": "string"
        }
      ],
      "name": "addAdmin",
      "outputs": [],
      "stateMutability": "nonpayable",
      "type": "function"
    },
    {
      "inputs": [
        {
          "internalType": "address",
          "name": "_vendorAddr",
          "type": "address"
        },
        {
          "internalType": "string",
          "name": "_state",
          "type": "string"
        },
        {
          "internalType": "string",
          "name": "_district",
          "type": "string"
        },
        {
          "internalType": "string",
          "name": "_city",
          "type": "string"
        },
        {
          "internalType": "string",
          "name": "_fullName",
          "type": "string"
        },
        {
          "internalType": "string",
          "name": "_gender",
          "type": "string"
        },
        {
          "internalType": "string",
          "name": "_email",
          "type": "string"
        },
        {
          "internalType": "string",
          "name": "_contact",
          "type": "string"
        },
        {
          "internalType": "string",
          "name": "_residentialAddr",
          "type": "string"
        },
        {
          "internalType": "string",
          "name": "_year",
          "type": "string"
        },
        {
          "internalType": "string",
          "name": "_vendortype",
          "type": "string"
        }
      ],
      "name": "addVendor",
      "outputs": [],
      "stateMutability": "nonpayable",
      "type": "function"
    },
    {
      "inputs": [
        {
          "internalType": "address",
          "name": "_vendortorating",
          "type": "address"
        },
        {
          "internalType": "uint256",
          "name": "_ratenumber",
          "type": "uint256"
        }
      ],
      "name": "GiveRating",
      "outputs": [],
      "stateMutability": "nonpayable",
      "type": "function"
    },
    {
      "inputs": [],
      "name": "isAdmin",
      "outputs": [
        {
          "internalType": "bool",
          "name": "",
          "type": "bool"
        }
      ],
      "stateMutability": "view",
      "type": "function",
      "constant": true
    },
    {
      "inputs": [],
      "name": "isVendor",
      "outputs": [
        {
          "internalType": "bool",
          "name": "",
          "type": "bool"
        }
      ],
      "stateMutability": "view",
      "type": "function",
      "constant": true
    },
    {
      "inputs": [
        {
          "internalType": "string",
          "name": "_state",
          "type": "string"
        },
        {
          "internalType": "string",
          "name": "_district",
          "type": "string"
        },
        {
          "internalType": "string",
          "name": "_city",
          "type": "string"
        },
        {
          "internalType": "uint256",
          "name": "_propertyId",
          "type": "uint256"
        },
        {
          "internalType": "uint256",
          "name": "_surveyNo",
          "type": "uint256"
        },
        {
          "internalType": "address",
          "name": "_owner",
          "type": "address"
        },
        {
          "internalType": "uint256",
          "name": "_marketValue",
          "type": "uint256"
        },
        {
          "internalType": "string",
          "name": "_tenderName",
          "type": "string"
        },
        {
          "internalType": "string",
          "name": "_tendertype",
          "type": "string"
        },
        {
          "internalType": "string",
          "name": "_ipfsuri",
          "type": "string"
        }
      ],
      "name": "registerLand",
      "outputs": [],
      "stateMutability": "nonpayable",
      "type": "function"
    },
    {
      "inputs": [
        {
          "internalType": "string",
          "name": "_fullName",
          "type": "string"
        },
        {
          "internalType": "string",
          "name": "_gender",
          "type": "string"
        },
        {
          "internalType": "string",
          "name": "_email",
          "type": "string"
        },
        {
          "internalType": "string",
          "name": "_contact",
          "type": "string"
        },
        {
          "internalType": "string",
          "name": "_residentialAddr",
          "type": "string"
        }
      ],
      "name": "setUserProfile",
      "outputs": [],
      "stateMutability": "nonpayable",
      "type": "function"
    },
    {
      "inputs": [
        {
          "internalType": "uint256",
          "name": "indexNo",
          "type": "uint256"
        }
      ],
      "name": "markMyPropertyAvailable",
      "outputs": [],
      "stateMutability": "nonpayable",
      "type": "function"
    },
    {
      "inputs": [
        {
          "internalType": "string",
          "name": "_state",
          "type": "string"
        },
        {
          "internalType": "string",
          "name": "_district",
          "type": "string"
        },
        {
          "internalType": "string",
          "name": "_city",
          "type": "string"
        },
        {
          "internalType": "uint256",
          "name": "_surveyNo",
          "type": "uint256"
        },
        {
          "internalType": "uint256",
          "name": "_BidAmount",
          "type": "uint256"
        },
        {
          "internalType": "string",
          "name": "_FileURI",
          "type": "string"
        }
      ],
      "name": "RequestForBuy",
      "outputs": [],
      "stateMutability": "nonpayable",
      "type": "function"
    },
    {
      "inputs": [
        {
          "internalType": "uint256",
          "name": "_index",
          "type": "uint256"
        },
        {
          "internalType": "uint256",
          "name": "_reqNo",
          "type": "uint256"
        }
      ],
      "name": "AcceptRequest",
      "outputs": [],
      "stateMutability": "nonpayable",
      "type": "function"
    },
    {
      "inputs": [
        {
          "internalType": "string",
          "name": "_state",
          "type": "string"
        },
        {
          "internalType": "string",
          "name": "_district",
          "type": "string"
        },
        {
          "internalType": "string",
          "name": "_city",
          "type": "string"
        },
        {
          "internalType": "uint256",
          "name": "_surveyNo",
          "type": "uint256"
        }
      ],
      "name": "getLandDetails",
      "outputs": [
        {
          "internalType": "address",
          "name": "",
          "type": "address"
        },
        {
          "internalType": "uint256",
          "name": "",
          "type": "uint256"
        },
        {
          "internalType": "uint256",
          "name": "",
          "type": "uint256"
        },
        {
          "internalType": "uint256",
          "name": "",
          "type": "uint256"
        },
        {
          "internalType": "string",
          "name": "",
          "type": "string"
        },
        {
          "internalType": "string",
          "name": "",
          "type": "string"
        },
        {
          "internalType": "string",
          "name": "",
          "type": "string"
        }
      ],
      "stateMutability": "view",
      "type": "function",
      "constant": true
    },
    {
      "inputs": [
        {
          "internalType": "string",
          "name": "_state",
          "type": "string"
        },
        {
          "internalType": "string",
          "name": "_district",
          "type": "string"
        },
        {
          "internalType": "string",
          "name": "_city",
          "type": "string"
        },
        {
          "internalType": "uint256",
          "name": "_surveyNo",
          "type": "uint256"
        }
      ],
      "name": "getRequestCnt_propId",
      "outputs": [
        {
          "internalType": "uint256",
          "name": "",
          "type": "uint256"
        },
        {
          "internalType": "uint256",
          "name": "",
          "type": "uint256"
        }
      ],
      "stateMutability": "view",
      "type": "function",
      "constant": true
    },
    {
      "inputs": [
        {
          "internalType": "string",
          "name": "_state",
          "type": "string"
        },
        {
          "internalType": "string",
          "name": "_district",
          "type": "string"
        },
        {
          "internalType": "string",
          "name": "_city",
          "type": "string"
        },
        {
          "internalType": "uint256",
          "name": "_surveyNo",
          "type": "uint256"
        },
        {
          "internalType": "uint256",
          "name": "_reqIndex",
          "type": "uint256"
        }
      ],
      "name": "getRequesterDetail",
      "outputs": [
        {
          "internalType": "address",
          "name": "",
          "type": "address"
        }
      ],
      "stateMutability": "view",
      "type": "function",
      "constant": true
    },
    {
      "inputs": [
        {
          "internalType": "string",
          "name": "_state",
          "type": "string"
        },
        {
          "internalType": "string",
          "name": "_district",
          "type": "string"
        },
        {
          "internalType": "string",
          "name": "_city",
          "type": "string"
        },
        {
          "internalType": "uint256",
          "name": "_surveyNo",
          "type": "uint256"
        },
        {
          "internalType": "uint256",
          "name": "_reqIndex",
          "type": "uint256"
        }
      ],
      "name": "getRequesterBidAmount",
      "outputs": [
        {
          "internalType": "uint256",
          "name": "",
          "type": "uint256"
        }
      ],
      "stateMutability": "view",
      "type": "function",
      "constant": true
    },
    {
      "inputs": [
        {
          "internalType": "string",
          "name": "_state",
          "type": "string"
        },
        {
          "internalType": "string",
          "name": "_district",
          "type": "string"
        },
        {
          "internalType": "string",
          "name": "_city",
          "type": "string"
        },
        {
          "internalType": "uint256",
          "name": "_surveyNo",
          "type": "uint256"
        },
        {
          "internalType": "uint256",
          "name": "_reqIndex",
          "type": "uint256"
        }
      ],
      "name": "getRequesterFileURI",
      "outputs": [
        {
          "internalType": "string",
          "name": "",
          "type": "string"
        }
      ],
      "stateMutability": "view",
      "type": "function",
      "constant": true
    },
    {
      "inputs": [
        {
          "internalType": "string",
          "name": "_state",
          "type": "string"
        },
        {
          "internalType": "string",
          "name": "_district",
          "type": "string"
        },
        {
          "internalType": "string",
          "name": "_city",
          "type": "string"
        },
        {
          "internalType": "uint256",
          "name": "_surveyNo",
          "type": "uint256"
        },
        {
          "internalType": "uint256",
          "name": "_reqIndex",
          "type": "uint256"
        }
      ],
      "name": "getRequesterName",
      "outputs": [
        {
          "internalType": "string",
          "name": "",
          "type": "string"
        }
      ],
      "stateMutability": "view",
      "type": "function",
      "constant": true
    },
    {
      "inputs": [
        {
          "internalType": "string",
          "name": "_state",
          "type": "string"
        },
        {
          "internalType": "string",
          "name": "_district",
          "type": "string"
        },
        {
          "internalType": "string",
          "name": "_city",
          "type": "string"
        },
        {
          "internalType": "uint256",
          "name": "_surveyNo",
          "type": "uint256"
        }
      ],
      "name": "isAvailable",
      "outputs": [
        {
          "internalType": "bool",
          "name": "",
          "type": "bool"
        }
      ],
      "stateMutability": "view",
      "type": "function",
      "constant": true
    },
    {
      "inputs": [
        {
          "internalType": "uint256",
          "name": "indx",
          "type": "uint256"
        }
      ],
      "name": "getOwnerOwns",
      "outputs": [
        {
          "internalType": "string",
          "name": "",
          "type": "string"
        },
        {
          "internalType": "string",
          "name": "",
          "type": "string"
        },
        {
          "internalType": "string",
          "name": "",
          "type": "string"
        },
        {
          "internalType": "uint256",
          "name": "",
          "type": "uint256"
        }
      ],
      "stateMutability": "view",
      "type": "function",
      "constant": true
    },
    {
      "inputs": [
        {
          "internalType": "uint256",
          "name": "indx",
          "type": "uint256"
        }
      ],
      "name": "getAdminOwns",
      "outputs": [
        {
          "internalType": "string",
          "name": "",
          "type": "string"
        },
        {
          "internalType": "string",
          "name": "",
          "type": "string"
        },
        {
          "internalType": "string",
          "name": "",
          "type": "string"
        },
        {
          "internalType": "uint256",
          "name": "",
          "type": "uint256"
        }
      ],
      "stateMutability": "view",
      "type": "function",
      "constant": true
    },
    {
      "inputs": [
        {
          "internalType": "uint256",
          "name": "indx",
          "type": "uint256"
        }
      ],
      "name": "getRequestedLands",
      "outputs": [
        {
          "internalType": "string",
          "name": "",
          "type": "string"
        },
        {
          "internalType": "string",
          "name": "",
          "type": "string"
        },
        {
          "internalType": "string",
          "name": "",
          "type": "string"
        },
        {
          "internalType": "uint256",
          "name": "",
          "type": "uint256"
        }
      ],
      "stateMutability": "view",
      "type": "function",
      "constant": true
    },
    {
      "inputs": [],
      "name": "getUserProfile",
      "outputs": [
        {
          "internalType": "string",
          "name": "",
          "type": "string"
        },
        {
          "internalType": "string",
          "name": "",
          "type": "string"
        },
        {
          "internalType": "string",
          "name": "",
          "type": "string"
        },
        {
          "internalType": "string",
          "name": "",
          "type": "string"
        },
        {
          "internalType": "string",
          "name": "",
          "type": "string"
        }
      ],
      "stateMutability": "view",
      "type": "function",
      "constant": true
    },
    {
      "inputs": [
        {
          "internalType": "address",
          "name": "_addr",
          "type": "address"
        }
      ],
      "name": "getUserName",
      "outputs": [
        {
          "internalType": "string",
          "name": "",
          "type": "string"
        }
      ],
      "stateMutability": "view",
      "type": "function",
      "constant": true
    },
    {
      "inputs": [
        {
          "internalType": "address",
          "name": "_addr",
          "type": "address"
        }
      ],
      "name": "getestablishYear",
      "outputs": [
        {
          "internalType": "string",
          "name": "",
          "type": "string"
        }
      ],
      "stateMutability": "view",
      "type": "function",
      "constant": true
    },
    {
      "inputs": [],
      "name": "getIndices",
      "outputs": [
        {
          "internalType": "uint256",
          "name": "",
          "type": "uint256"
        },
        {
          "internalType": "uint256",
          "name": "",
          "type": "uint256"
        }
      ],
      "stateMutability": "view",
      "type": "function",
      "constant": true
    },
    {
      "inputs": [
        {
          "internalType": "string",
          "name": "_state",
          "type": "string"
        },
        {
          "internalType": "string",
          "name": "_district",
          "type": "string"
        },
        {
          "internalType": "string",
          "name": "_city",
          "type": "string"
        },
        {
          "internalType": "uint256",
          "name": "_surveyNo",
          "type": "uint256"
        }
      ],
      "name": "didIRequested",
      "outputs": [
        {
          "internalType": "bool",
          "name": "",
          "type": "bool"
        }
      ],
      "stateMutability": "view",
      "type": "function",
      "constant": true
    },
    {
      "inputs": [],
      "name": "getTotalTendors",
      "outputs": [
        {
          "internalType": "uint256",
          "name": "",
          "type": "uint256"
        }
      ],
      "stateMutability": "view",
      "type": "function",
      "constant": true
    }
  ],
  "bytecode": "0x6080806040523461002e576103e860035560008054600160a060020a0319163317905561499b90816100348239f35b600080fdfe6080604052600436101561001257600080fd5b7c01000000000000000000000000000000000000000000000000000000006000350480630e2279af146143965780631555ff1e1461427b5780631c8e896214614238578063253bc13c146141fb57806327e30c361461416e57806329575f6a146141475780632ca305f3146140ac5780633bbd43b314614066578063429b62e514613fce57806344e0573414613e585780635863056d14613e225780636d1b9a8e14613d875780636f61c74414613c9e578063757612ef1461331c57806379ecc8cb146116fc5780638b5bcc3d1461326457806398faad5514613246578063992369da14613206578063a10da966146131c6578063a3743d5c146125c2578063aa9c0dcd14612005578063abb5cd0514611fae578063b6db75a014611f93578063d06efd6714611f1d578063d1dbeff214611ea9578063d41cc5c814611794578063d44cafa51461171a578063d67b6628146116fc578063d84f55ee146116ab578063d975f5f014611088578063dd7cee491461056e578063e331ad7c14610330578063e7217f1614610315578063eaec23fa146102ef578063eb68048b146102d1578063f70e8d441461027f5763fc47f57d146101cf57600080fd5b3461027a5760208060031936011261027a576004353360005260078252604060002081600052825261027660406000205433600052600784526040600020836000528452610223600160406000200161445a565b9233600052600785526040600020816000528552610247600260406000200161445a565b9433600052600781526040600020916000525261026a600360406000200161445a565b60405194859485614706565b0390f35b600080fd5b3461027a576102a26102a26102a861029636614737565b9692919395909561463f565b90614665565b90600052602052600b604060002001906000526020526020600260406000200154604051908152f35b3461027a57600036600319011261027a576020600154604051908152f35b3461027a57602061030b610302366145dc565b929190916148e1565b6040519015158152f35b3461027a57600036600319011261027a57602061030b6148bb565b3461027a5761033e366145dc565b9192604051908051602095868301916103588186856144fe565b8401938781600996878152030190206103719082614665565b61037b9086614665565b866000528752604060002054600160a060020a031695604051888186516103a38183896144fe565b8101888152030190206103b69083614665565b6103c09087614665565b81600052885260406000206005015495604051898187516103e281838a6144fe565b8101898152030190206103f59084614665565b6103ff9082614665565b826000528952604060002060070154926040518a81885161042181838b6144fe565b81018a8152030190206104349082614665565b61043e9083614665565b836000528a528660406000200154946040518b81895161045f8183876144fe565b81018b8152030190206104729083614665565b61047c9084614665565b846000528b528a60406000206002016104949061445a565b97604051828183516104a78183896144fe565b81018d8152030190206104ba9085614665565b6104c49086614665565b86600052825260406000206001016104db9061445a565b99604051809481935180926104ef926144fe565b82019081520301902061050191614665565b61050a91614665565b90600052875260406000206004016105219061445a565b946040519788978852870152604086015260608501526080840160e0905260e0840161054c91614521565b83810360a085015261055d91614521565b82810360c084015261027691614521565b3461027a5761014036600319011261027a5760043567ffffffffffffffff811161027a576105a0903690600401614585565b60243567ffffffffffffffff811161027a576105c0903690600401614585565b9060443567ffffffffffffffff811161027a576105e1903690600401614585565b60a43591600160a060020a0393848416840361027a5760e43567ffffffffffffffff811161027a57610617903690600401614585565b916101043567ffffffffffffffff811161027a57610639903690600401614585565b6101243567ffffffffffffffff811161027a5761065a903690600401614585565b33600052600460205233886040600020541603611041573360005260046020526106986106a660036040600020016040519283916020830190614837565b03601f198101835282614438565b6020815191012060405160208101906106d760208288516106ca8187858d016144fe565b8101038084520182614438565b5190201480610fef575b80610f9d575b15610f305761071d61071760405160208187516107078183858c016144fe565b8101600981520301902086614665565b87614665565b600354908160005260205260ff60086040600020015416610ec35761076961076360405160208188516107538183858d016144fe565b8101600981520301902087614665565b88614665565b906000526020526040600020913360005260066020526040600020600a602052600660406000200154600052602052604060002095600a602052600160a060020a03198a8a168186541617855560038501903390825416179055600354806005860155600685015589891660005260066040600020015460078501556008840160ff199060018282541617905560c43560098601556001600a86019182541617905580519067ffffffffffffffff8211610b395761082a60028601546143fa565b601f8111610e8d575b50602090601f8311600114610e1a57610867929160009183610e0f575b5050816002029160080260020a6000190419161790565b60028401555b80519067ffffffffffffffff8211610b395761088c60018501546143fa565b601f8111610dd9575b50602090601f8311600114610d66576108c8929160009183610cb2575050816002029160080260020a6000190419161790565b60018301555b80519067ffffffffffffffff8211610b39576108ed60048401546143fa565b601f8111610d30575b50602090601f8311600114610cbd57918061092c92600494600092610cb2575050816002029160080260020a6000190419161790565b9101555b600354835580519067ffffffffffffffff8211610b395761095460018501546143fa565b601f8111610c7c575b50602090601f8311600114610c0957610990929160009183610b52575050816002029160080260020a6000190419161790565b60018301555b80519067ffffffffffffffff8211610b39576109b560028401546143fa565b601f8111610bd3575b50602090601f8311600114610b5d5791806109f59260039594600092610b52575050816002029160080260020a6000190419161790565b60028201555b019080519067ffffffffffffffff8211610b3957610a1983546143fa565b601f8111610afb575b50602090601f8311600114610a9057610a55929160009183610a85575050816002029160080260020a6000190419161790565b90555b16600052600a6020526006604060002001610a73815461479e565b9055610a8060035461479e565b600355005b015190508680610850565b90601f198316918460005260206000209260005b818110610ae357509160029391856001969410610ac8575b50505002019055610a58565b01516008601f841602840a6000190419169055868080610abc565b92936020600181928786015181550195019301610aa4565b610b29908460005260206000206020601f86010481019160208610610b2f575b601f602091010401906147ad565b85610a22565b9091508190610b1b565b60e060020a634e487b7102600052604160045260246000fd5b015190508880610850565b906002840160005260206000209160005b601f1985168110610bbb5750926001926002926003969583601f19811610610ba0575b505050020160028201556109fb565b01516008601f841602840a6000190419169055888080610b91565b91926020600181928685015181550194019201610b6e565b610c03906002850160005260206000206020601f86010481019160208610610b2f57601f602091010401906147ad565b866109be565b906001850160005260206000209160005b601f1985168110610c645750918391600293600195601f19811610610c49575b50505002016001830155610996565b01516008601f841602840a6000190419169055888080610c3a565b91926020600181928685015181550194019201610c1a565b610cac906001860160005260206000206020601f86010481019160208610610b2f57601f602091010401906147ad565b8761095d565b015190508b80610850565b906004840160005260206000209160005b601f1985168110610d1857509260019260029260049583601f19811610610cfd575b5050500201910155610930565b01516008601f841602840a60001904191690558b8080610cf0565b91926020600181928685015181550194019201610cce565b610d60906004850160005260206000206020601f86010481019160208610610b2f57601f602091010401906147ad565b896108f6565b906001850160005260206000209160005b601f1985168110610dc15750918391600293600195601f19811610610da6575b505050020160018301556108ce565b01516008601f841602840a60001904191690558b8080610d97565b91926020600181928685015181550194019201610d77565b610e09906001860160005260206000206020601f86010481019160208610610b2f57601f602091010401906147ad565b8a610895565b015190508c80610850565b906002860160005260206000209160005b601f1985168110610e755750918391600293600195601f19811610610e5a575b5050500201600284015561086d565b01516008601f841602840a60001904191690558c8080610e4b565b91926020600181928685015181550194019201610e2b565b610ebd906002870160005260206000206020601f86010481019160208610610b2f57601f602091010401906147ad565b8b610833565b608460405160e560020a62461bcd02815260206004820152602160248201527f537572766579204e756d62657220616c7265616479207265676973746572656460448201527f21000000000000000000000000000000000000000000000000000000000000006064820152fd5b608460405160e560020a62461bcd02815260206004820152602a60248201527f41646d696e2063616e206f6e6c79207265676973746572206c616e64206f662060448201527f73616d6520636974792e000000000000000000000000000000000000000000006064820152fd5b503360005260046020526001604060002001604051610fc481610698602082018095614837565b5190206040516020810190610fe6602082816106ca8d878151938492016144fe565b519020146106e7565b50336000526004602052600260406000200160405161101681610698602082018095614837565b5190206040516020810190611038602082816106ca8b878151938492016144fe565b519020146106e1565b606460405160e560020a62461bcd02815260206004820152601c60248201527f4f6e6c792061646d696e2063616e205265676973746572206c616e64000000006044820152fd5b3461027a5760c036600319011261027a5760043567ffffffffffffffff811161027a576110b9903690600401614585565b60243567ffffffffffffffff811161027a576110d9903690600401614585565b9060443567ffffffffffffffff811161027a576110fa903690600401614585565b9060a43567ffffffffffffffff811161027a5761111b903690600401614585565b61113c61113660405160208186516107078183858b016144fe565b84614665565b606435600052602052604060002090600160ff600a8401541615150361163e57600c82015490600b83018260005280602052604060002033600160a060020a031982541617905533600052600a602052600760406000200154926000526020526040600020916001830155608435600283015580519067ffffffffffffffff8211610b39576111ce60038401546143fa565b601f8111611608575b50602090601f831160011461159557918061120d9260039460009261158a575050816002029160080260020a6000190419161790565b9101555b600c61121f8183015461479e565b9101553360005260086020526040600020600a602052600760406000200154600052602052604060002090606435825580519067ffffffffffffffff8211610b395761126e60018401546143fa565b601f8111611554575b50602090601f83116001146114e1576112aa929160009183610a85575050816002029160080260020a6000190419161790565b60018201555b60028101835167ffffffffffffffff8111610b39576112cf82546143fa565b601f81116114ae575b506020601f821160011461144157908061130e9260039697600092611436575050816002029160080260020a6000190419161790565b90555b019080519067ffffffffffffffff8211610b395761132f83546143fa565b601f8111611403575b50602090601f83116001146113985761136b92916000918361138d575050816002029160080260020a6000190419161790565b90555b33600052600a6020526007604060002001611389815461479e565b9055005b015190508480610850565b90601f198316918460005260206000209260005b8181106113eb575091600293918560019694106113d0575b5050500201905561136e565b01516008601f841602840a60001904191690558480806113c4565b929360206001819287860151815501950193016113ac565b611430908460005260206000206020601f86010481019160208610610b2f57601f602091010401906147ad565b83611338565b015190508780610850565b601f198216958360005260206000209660005b81811061149657509660029284926001956003999a1061147b575b50505002019055611311565b01516008601f841602840a600019041916905587808061146f565b83830151895560019098019760209384019301611454565b6114db908360005260206000206020601f85010481019160208510610b2f57601f602091010401906147ad565b856112d8565b906001840160005260206000209160005b601f198516811061153c5750918391600293600195601f19811610611521575b505050020160018201556112b0565b01516008601f841602840a6000190419169055868080611512565b919260206001819286850151815501940192016114f2565b611584906001850160005260206000206020601f86010481019160208610610b2f57601f602091010401906147ad565b85611277565b015190508980610850565b906003840160005260206000209160005b601f19851681106115f057509260019260029260039583601f198116106115d5575b5050500201910155611211565b01516008601f841602840a60001904191690558980806115c8565b919260206001819286850151815501940192016115a6565b611638906003850160005260206000206020601f86010481019160208610610b2f57601f602091010401906147ad565b876111d7565b608460405160e560020a62461bcd02815260206004820152602560248201527f546869732070726f7065727479206973204e4f54206d61726b656420666f722060448201527f73616c65210000000000000000000000000000000000000000000000000000006064820152fd5b3461027a57602036600319011261027a57600160a060020a036116cc6143e4565b16600052600a6020526102766116e8600160406000200161445a565b604051918291602083526020830190614521565b3461027a57600036600319011261027a576020600354604051908152f35b3461027a57604036600319011261027a57600160a060020a0361173b6143e4565b16806000526005602052600660406000200154602435810180911161177b576007916000526005602052604060002090600682015501611389815461479e565b60e060020a634e487b7102600052601160045260246000fd5b3461027a57604036600319011261027a5733600090815260066020908152604080832060043580855292529091208054906117d19060010161445a565b913360005260066020526040600020816000526020526117f7600260406000200161445a565b9033600052600660205260406000209060005260205261181d600360406000200161445a565b9161184b61113660405160208188516118398183858d016144fe565b60098183015281010301902084614665565b81600052602052600b604060002001602435600052602052600160a060020a0360406000205416926118a66118a0604051602081816118908b838151938492016144fe565b8101600981520301902085614665565b82614665565b82600052602052600b6040600020016024356000526020526118db6118a0604051602081816118908b838151938492016144fe565b82600052602052600c6040600020015460005b818110611d5d5750506119146118a0604051602081816118908b838151938492016144fe565b82600052602052604060002084600160a060020a031982541617905561194d6118a0604051602081816118908b838151938492016144fe565b82600052602052600a60406000200160ff1981541690556119816118a0604051602081816118908b838151938492016144fe565b826000526020526000600c60408220015583600052600a602052600660406000200154926006602052604060002084600052602052604060002095838755805167ffffffffffffffff8111610b39576119dd60018901546143fa565b601f8111611d27575b506020601f8211600114611cb7579080611a1892600091611cac575b50816002029160080260020a6000190419161790565b60018801555b815167ffffffffffffffff8111610b3957611a3c60028901546143fa565b601f8111611c76575b506020601f8211600114611c06579080611a7692600091611bfb5750816002029160080260020a6000190419161790565b60028801555b82519667ffffffffffffffff8811610b3957611a9b60038201546143fa565b601f8111611bc5575b50602097601f8111600114611b45576102a29392611b00926003611ae984602095611b109b9c9d9e600091611b3a5750816002029160080260020a6000190419161790565b9101555b81604051938285809451938492016144fe565b8101600981520301902090614665565b90600052602052600760406000200155600052600a6020526006604060002001611389815461479e565b90508a01518f611a02565b60038201600052602060002060005b601f1983168110611bad575092611b0092600360016002856102a29998611b109c9d9e9f602098601f19811610611b92575b50500201910155611aed565b8c01516008601f841602840a60001904191690558f80611b86565b868b0151825560209a8b019a60019092019101611b54565b611bf5906003830160005260206000206020601f8c010481019160208c10610b2f57601f602091010401906147ad565b88611aa4565b90508401518a611a02565b6002890160005260206000209060005b601f1984168110611c5e57509160029160019382601f19811610611c43575b505002016002880155611a7c565b8601516008601f841602840a60001904191690558a80611c35565b90916020600181928589015181550193019101611c16565b611ca69060028a0160005260206000206020601f85010481019160208510610b2f57601f602091010401906147ad565b88611a45565b90508301518a611a02565b6001890160005260206000209060005b601f1984168110611d0f57509160029160019382601f19811610611cf4575b505002016001880155611a1e565b8501516008601f841602840a60001904191690558a80611ce6565b90916020600181928588015181550193019101611cc7565b611d579060018a0160005260206000206020601f85010481019160208510610b2f57601f602091010401906147ad565b886119e6565b600190611d95611d8f611d7f60208b81604051938285809451938492016144fe565b8101600981520301902088614665565b85614665565b85600052602052600b60406000200181600052602052600160a060020a0360406000205416611def611de9611dd960208c81604051938285809451938492016144fe565b8101600981520301902089614665565b86614665565b86600052602052600b604060002001826000526020528260406000200154906000526008602052604060002090600052602052611e4d6003604060002060008155611e3b8582016147ef565b611e47600282016147ef565b016147ef565b611e6c611d8f611d7f60208b81604051938285809451938492016144fe565b85600052602052600b60406000200181600052602052611ea3600360406000206000815560008582015560006002820155016147ef565b016118ee565b3461027a57604036600319011261027a57600160a060020a03611eca6143e4565b166000526006602052604060002060243560005260205260406000208054610276611ef76001840161445a565b92611f106003611f096002840161445a565b920161445a565b9060405194859485614546565b3461027a576040611f7a611f30366145dc565b919293906102a2865194611b00878051611f5b6107178a6020809c81809701956107078183896144fe565b886000528252600c8b6000200154998b519384928392519283916144fe565b9060005281526005836000200154908351928352820152f35b3461027a57600036600319011261027a57602061030b6147c4565b3461027a576102a26102a2611fc561029636614737565b90600052602052600b60406000200190600052602052600160a060020a0360406000205416600052600a6020526102766116e8600160406000200161445a565b3461027a5760a036600319011261027a5767ffffffffffffffff60043581811161027a57612037903690600401614585565b602491823581811161027a57612051903690600401614585565b9160443582811161027a5761206a903690600401614585565b60643583811161027a57612082903690600401614585565b9360843584811161027a5761209b903690600401614585565b9433600052602090600a82526040600020906001948583018751898111612461576120c682546143fa565b98601f998a8111612596575b5086908a831160011461252f57612103929160009183612479575050816002029160080260020a6000190419161790565b90555b600294858401908051908a82116125175761212183546143fa565b8a81116124eb575b5086908a83116001146124845761215a929160009183612479575050816002029160080260020a6000190419161790565b90555b805160038401918982116124615761217583546143fa565b898111612435575b5085908983116001146123ce576121ae929160009183612313575050816002029160080260020a6000190419161790565b90555b805160048301918882116123b6576121c983546143fa565b88811161238a575b50849088831160011461231e579180612207926005969594600092612313575050816002029160080260020a6000190419161790565b90555b019686519586116122fc575061222087546143fa565b8481116122c6575b50809380861160011461225d575050505081906113899360009261138d575050816002029160080260020a6000190419161790565b91949390929584601f1981168960005285600020956000905b8a8383106122ac5750505010612291575b5050505002019055005b0151908316600802840a600019041916905584808080612287565b858701518955909701969485019488935090810190612276565b6122ed908860005282600020838781818b0104830193828b106122f3575b010401906147ad565b87612228565b935082936122e4565b60e060020a634e487b710260005260416004526000fd5b015190508d80610850565b87919493928791601f1982169685600052886000209160005b8a8a82106123715750508360059910612357575b5050500201905561220a565b01516008838d1602840a60001904191690558d808061234b565b8383015185558d978d9750909401939283019201612337565b6123b0908460005286600020878b81818801048301938288106122f357010401906147ad565b8b6121d1565b8a60e060020a634e487b710260005260416004526000fd5b9188928892601f1983169186600052896000209260005b8b82821061241c5750508411612402575b505050020190556121b1565b01516008838d1602840a60001904191690558d80806123f6565b8484015186558e988e98509095019493840193016123e5565b61245b908460005287600020888c81818801048301938288106122f357010401906147ad565b8c61217d565b8b60e060020a634e487b710260005260416004526000fd5b015190508e80610850565b9189928992601f19831691866000528a6000209260005b8c8282106124d257505084116124b8575b5050500201905561215d565b01516008838e1602840a60001904191690558e80806124ac565b8484015186558f988f985090950194938401930161249b565b612511908460005288600020898d81818801048301938288106122f357010401906147ad565b8d612129565b8c60e060020a634e487b710260005260416004526000fd5b918991601f1982169085600052896000209160005b8b82821061258057505094836002959610612566575b50505002019055612106565b01516008838e1602840a60001904191690558e808061255a565b8388015185558e96909401939283019201612544565b6125bc908460005288600020898d81818801048301938288106122f357010401906147ad565b8d6120d2565b3461027a5761016036600319011261027a576125dc6143e4565b60243567ffffffffffffffff811161027a576125fc903690600401614585565b9060443567ffffffffffffffff811161027a5761261d903690600401614585565b9060643567ffffffffffffffff811161027a5761263e903690600401614585565b60843567ffffffffffffffff811161027a5761265e903690600401614585565b9160a43567ffffffffffffffff811161027a5761267f903690600401614585565b9060c43567ffffffffffffffff811161027a576126a0903690600401614585565b9260e43567ffffffffffffffff811161027a576126c1903690600401614585565b966101043567ffffffffffffffff811161027a576126e3903690600401614585565b966101243567ffffffffffffffff811161027a57612705903690600401614585565b916101443567ffffffffffffffff811161027a57612727903690600401614585565b91600160a060020a038616600052600560205260406000209461274b60025461479e565b600255855473ffffffffffffffffffffffffffffffffffffffff1916600160a060020a03881617865580519067ffffffffffffffff8211610b395761279360018801546143fa565b601f8111613190575b50602090601f831160011461311d576127cf929160009183612479575050816002029160080260020a6000190419161790565b60018601555b80519067ffffffffffffffff8211610b39576127f460028701546143fa565b601f81116130e7575b50602090601f831160011461307457612830929160009183612313575050816002029160080260020a6000190419161790565b60028501555b80519067ffffffffffffffff8211610b395761285560038601546143fa565b601f811161303e575b50602090601f8311600114612fcb57612891929160009183610e0f575050816002029160080260020a6000190419161790565b60038401555b600560068401556001600784015580519067ffffffffffffffff8211610b39576128c460058501546143fa565b601f8111612f95575b50602090601f8311600114612f2257612900929160009183610cb2575050816002029160080260020a6000190419161790565b60058301555b80519067ffffffffffffffff8211610b395761292560048401546143fa565b601f8111612eec575b50602090601f8311600114612e6f5782600160a060020a0395949360049361296e93600092610e0f575050816002029160080260020a6000190419161790565b9101555b16600052600a602052604060002092600184019080519067ffffffffffffffff8211610b39576129a283546143fa565b601f8111612e3c575b50602090601f8311600114612dd1576129de92916000918361158a575050816002029160080260020a6000190419161790565b90555b8051600284019167ffffffffffffffff8211610b3957612a0183546143fa565b601f8111612d9e575b50602090601f8311600114612d3357612a3d929160009183610b52575050816002029160080260020a6000190419161790565b90555b8051600383019167ffffffffffffffff8211610b3957612a6083546143fa565b601f8111612d00575b50602090601f8311600114612c9557612a9c929160009183611436575050816002029160080260020a6000190419161790565b90555b60048101835167ffffffffffffffff8111610b3957612abe82546143fa565b601f8111612c62575b506020601f8211600114612bf5579080612afd9260059697600092611436575050816002029160080260020a6000190419161790565b90555b019080519067ffffffffffffffff8211610b3957612b1e83546143fa565b601f8111612bc2575b50602090601f8311600114612b5a5761138992916000918361138d575050816002029160080260020a6000190419161790565b90601f198316918460005260206000209260005b818110612baa57509160029391856001969410612b8f575b50505002019055005b01516008601f841602840a6000190419169055848080612b86565b92936020600181928786015181550195019301612b6e565b612bef908460005260206000206020601f86010481019160208610610b2f57601f602091010401906147ad565b83612b27565b601f198216958360005260206000209660005b818110612c4a57509660029284926001956005999a10612c2f575b50505002019055612b00565b01516008601f841602840a6000190419169055878080612c23565b83830151895560019098019760209384019301612c08565b612c8f908360005260206000206020601f85010481019160208510610b2f57601f602091010401906147ad565b85612ac7565b90601f198316918460005260206000209260005b818110612ce857509160029391856001969410612ccd575b50505002019055612a9f565b01516008601f841602840a6000190419169055878080612cc1565b92936020600181928786015181550195019301612ca9565b612d2d908460005260206000206020601f86010481019160208610610b2f57601f602091010401906147ad565b86612a69565b90601f198316918460005260206000209260005b818110612d8657509160029391856001969410612d6b575b50505002019055612a40565b01516008601f841602840a6000190419169055888080612d5f565b92936020600181928786015181550195019301612d47565b612dcb908460005260206000206020601f86010481019160208610610b2f57601f602091010401906147ad565b87612a0a565b90601f198316918460005260206000209260005b818110612e2457509160029391856001969410612e09575b505050020190556129e1565b01516008601f841602840a6000190419169055898080612dfd565b92936020600181928786015181550195019301612de5565b612e69908460005260206000206020601f86010481019160208610610b2f57601f602091010401906147ad565b886129ab565b906004840160005260206000209160005b601f1985168110612ed4575083600493600193600293600160a060020a03999897601f19811610612eb9575b5050500201910155612972565b01516008601f841602840a60001904191690558c8080612eac565b91926020600181928685015181550194019201612e80565b612f1c906004850160005260206000206020601f86010481019160208610610b2f57601f602091010401906147ad565b8961292e565b906005850160005260206000209160005b601f1985168110612f7d5750918391600293600195601f19811610612f62575b50505002016005830155612906565b01516008601f841602840a60001904191690558b8080612f53565b91926020600181928685015181550194019201612f33565b612fc5906005860160005260206000206020601f86010481019160208610610b2f57601f602091010401906147ad565b8a6128cd565b906003860160005260206000209160005b601f19851681106130265750918391600293600195601f1981161061300b575b50505002016003840155612897565b01516008601f841602840a60001904191690558c8080612ffc565b91926020600181928685015181550194019201612fdc565b61306e906003870160005260206000206020601f86010481019160208610610b2f57601f602091010401906147ad565b8b61285e565b906002870160005260206000209160005b601f19851681106130cf5750918391600293600195601f198116106130b4575b50505002016002850155612836565b01516008601f841602840a60001904191690558d80806130a5565b91926020600181928685015181550194019201613085565b613117906002880160005260206000206020601f86010481019160208610610b2f57601f602091010401906147ad565b8c6127fd565b906001880160005260206000209160005b601f19851681106131785750918391600293600195601f1981161061315d575b505050020160018601556127d5565b01516008601f841602840a60001904191690558e808061314e565b9192602060018192868501518155019401920161312e565b6131c0906001890160005260206000206020601f86010481019160208610610b2f57601f602091010401906147ad565b8d61279c565b3461027a576102a26102a26131dd61029636614737565b90600052602052600b604060002001906000526020526102766116e8600360406000200161445a565b3461027a576102a26132276102a261321d366145dc565b959293909361463f565b90600052602052602060ff600a60406000200154166040519015158152f35b3461027a57600036600319011261027a576020600254604051908152f35b3461027a57604036600319011261027a5761327d6143e4565b600160a060020a03809116600052600760205260406000206024356000526020526040600020908154906133126132b66001850161445a565b936133046132c66002830161445a565b9360046132d56003850161445a565b93015416936132f6604051978897885260a0602089015260a0880190614521565b908682036040880152614521565b908482036060860152614521565b9060808301520390f35b3461027a5761012036600319011261027a576133366143e4565b60243567ffffffffffffffff811161027a57613356903690600401614585565b9060443567ffffffffffffffff811161027a57613377903690600401614585565b9060643567ffffffffffffffff811161027a57613398903690600401614585565b60843567ffffffffffffffff811161027a576133b8903690600401614585565b9160a43567ffffffffffffffff811161027a576133d9903690600401614585565b9060c43567ffffffffffffffff811161027a576133fa903690600401614585565b9260e43567ffffffffffffffff811161027a5761341b903690600401614585565b966101043567ffffffffffffffff811161027a5761343d903690600401614585565b96600160a060020a038416600052600460205260406000209261346160015461479e565b600155835473ffffffffffffffffffffffffffffffffffffffff1916600160a060020a03861617845580519067ffffffffffffffff8211610b39576134a960018601546143fa565b601f8111613c68575b50602090601f8311600114613bf5576134e5929160009183610e0f575050816002029160080260020a6000190419161790565b60018401555b80519067ffffffffffffffff8211610b395761350a60028501546143fa565b601f8111613bbf575b50602090601f8311600114613b4c57613546929160009183610cb2575050816002029160080260020a6000190419161790565b60028301555b80519067ffffffffffffffff8211610b395761356b60038401546143fa565b601f8111613b16575b50602090601f8311600114613a995782600160a060020a039594936003936135b493600092610e0f575050816002029160080260020a6000190419161790565b9101555b16600052600a602052604060002092600184019080519067ffffffffffffffff8211610b39576135e883546143fa565b601f8111613a66575b50602090601f83116001146139fb5761362492916000918361158a575050816002029160080260020a6000190419161790565b90555b8051600284019167ffffffffffffffff8211610b395761364783546143fa565b601f81116139c8575b50602090601f831160011461395d57613683929160009183610b52575050816002029160080260020a6000190419161790565b90555b8051600383019167ffffffffffffffff8211610b39576136a683546143fa565b601f811161392a575b50602090601f83116001146138bf576136e2929160009183611436575050816002029160080260020a6000190419161790565b90555b60048101835167ffffffffffffffff8111610b395761370482546143fa565b601f811161388c575b506020601f821160011461381f5790806137439260059697600092611436575050816002029160080260020a6000190419161790565b90555b019080519067ffffffffffffffff8211610b395761376483546143fa565b601f81116137ec575b50602090601f83116001146137a05761138992916000918361138d575050816002029160080260020a6000190419161790565b90601f198316918460005260206000209260005b8181106137d457509160029391856001969410612b8f5750505002019055005b929360206001819287860151815501950193016137b4565b613819908460005260206000206020601f86010481019160208610610b2f57601f602091010401906147ad565b8361376d565b601f198216958360005260206000209660005b81811061387457509660029284926001956005999a10613859575b50505002019055613746565b01516008601f841602840a600019041916905587808061384d565b83830151895560019098019760209384019301613832565b6138b9908360005260206000206020601f85010481019160208510610b2f57601f602091010401906147ad565b8561370d565b90601f198316918460005260206000209260005b818110613912575091600293918560019694106138f7575b505050020190556136e5565b01516008601f841602840a60001904191690558780806138eb565b929360206001819287860151815501950193016138d3565b613957908460005260206000206020601f86010481019160208610610b2f57601f602091010401906147ad565b866136af565b90601f198316918460005260206000209260005b8181106139b057509160029391856001969410613995575b50505002019055613686565b01516008601f841602840a6000190419169055888080613989565b92936020600181928786015181550195019301613971565b6139f5908460005260206000206020601f86010481019160208610610b2f57601f602091010401906147ad565b87613650565b90601f198316918460005260206000209260005b818110613a4e57509160029391856001969410613a33575b50505002019055613627565b01516008601f841602840a6000190419169055898080613a27565b92936020600181928786015181550195019301613a0f565b613a93908460005260206000206020601f86010481019160208610610b2f57601f602091010401906147ad565b886135f1565b906003840160005260206000209160005b601f1985168110613afe575083600393600193600293600160a060020a03999897601f19811610613ae3575b50505002019101556135b8565b01516008601f841602840a60001904191690558c8080613ad6565b91926020600181928685015181550194019201613aaa565b613b46906003850160005260206000206020601f86010481019160208610610b2f57601f602091010401906147ad565b89613574565b906002850160005260206000209160005b601f1985168110613ba75750918391600293600195601f19811610613b8c575b5050500201600283015561354c565b01516008601f841602840a60001904191690558b8080613b7d565b91926020600181928685015181550194019201613b5d565b613bef906002860160005260206000206020601f86010481019160208610610b2f57601f602091010401906147ad565b8a613513565b906001860160005260206000209160005b601f1985168110613c505750918391600293600195601f19811610613c35575b505050020160018401556134eb565b01516008601f841602840a60001904191690558c8080613c26565b91926020600181928685015181550194019201613c06565b613c98906001870160005260206000206020601f86010481019160208610610b2f57601f602091010401906147ad565b8b6134b2565b3461027a57600036600319011261027a5733600052613d506020600a8152610276613ccf600160406000200161445a565b9133600052600a8152613d79613ceb600260406000200161445a565b9133600052600a8152613d6b613d07600360406000200161445a565b33600052600a8352613d5d613d22600460406000200161445a565b9333600052600a8152613d3b600560406000200161445a565b966040519a8b9a60a08c5260a08c0190614521565b918a8303908b0152614521565b908782036040890152614521565b908582036060870152614521565b908382036080850152614521565b3461027a5760208060031936011261027a576004353360005260068252604060002081600052825261027660406000205433600052600684526040600020836000528452613ddb600160406000200161445a565b9233600052600685526040600020816000528552613dff600260406000200161445a565b9433600052600681526040600020916000525261026a600360406000200161445a565b3461027a57600036600319011261027a5733600052600a6020526040806000206007600682015491015482519182526020820152f35b3461027a5760208060031936011261027a576004359033600052600681526040600020826000528152613e91600160406000200161445a565b9133600052600682526040600020816000528252613eb5600260406000200161445a565b33600052600683526040600020826000528352613ed8600360406000200161445a565b91336000526006845260406000209060005283526040600020549360405190613f11611d8f82519387818186019661189081838a6144fe565b86600052855260ff600a6040600020015416613f615791611b00856102a293613f4696956040519384928392519283916144fe565b6000928352905260409020600a01805460ff19166001179055005b6084856040519060e560020a62461bcd0282526004820152602160248201527f50726f706572747920616c7265616479206d61726b656420617661696c61626c60448201527f65000000000000000000000000000000000000000000000000000000000000006064820152fd5b3461027a57602036600319011261027a57600160a060020a0380613ff06143e4565b1660005260046020526040600020908154166102766140116001840161445a565b9261405861402d60036140266002850161445a565b930161445a565b9161404a6040519687968752608060208801526080870190614521565b908582036040870152614521565b908382036060850152614521565b3461027a576102a26102a261407d61029636614737565b90600052602052600b604060002001906000526020526020600160a060020a0360406000205416604051908152f35b3461027a5760208060031936011261027a576004353360005260088252604060002081600052825261027660406000205433600052600884526040600020836000528452614100600160406000200161445a565b9233600052600885526040600020816000528552614124600260406000200161445a565b9433600052600881526040600020916000525261026a600360406000200161445a565b3461027a57600036600319011261027a576020600160a060020a0360005416604051908152f35b3461027a57602036600319011261027a57600160a060020a03806141906143e4565b1660005260056020526040600020908154166102766141b16001840161445a565b926141be6002820161445a565b906141cb6003820161445a565b6141d76004830161445a565b6141e36005840161445a565b9160076006850154940154946040519889988961468b565b3461027a57602036600319011261027a57600160a060020a0361421c6143e4565b1660005260056020526102766116e8600460406000200161445a565b3461027a57602036600319011261027a57600160a060020a038061425a6143e4565b16600052600a6020526040600020908154166102766141b16001840161445a565b3461027a57611b006142ad60206102a2614294366145dc565b96919285604096929651938285809451938492016144fe565b906000526020526040600020600160a060020a039081815416906142d36001820161445a565b926142e06002830161445a565b90600383015416916142f46004820161445a565b600582015493600683015460078401549061436660ff60088701541693600987015495614353600c60ff600a8b015416990154996143456040519e8f9e8f6101809181528160208201520190614521565b8d810360408f015290614521565b9160608c01528a820360808c0152614521565b9660a089015260c088015260e0870152151561010086015261012085015215156101408401526101608301520390f35b3461027a57604036600319011261027a57600160a060020a036143b76143e4565b166000526008602052604060002060243560005260205260406000208054610276611ef76001840161445a565b60043590600160a060020a038216820361027a57565b906001600283049216801561442e575b602083101461441557565b60e060020a634e487b7102600052602260045260246000fd5b91607f169161440a565b90601f8019910116810190811067ffffffffffffffff821117610b3957604052565b9060405191826000825461446d816143fa565b908184526020946001916001811690816000146144dd575060011461449e575b50505061449c92500383614438565b565b600090815285812095935091905b8183106144c557505061449c935082010138808061448d565b855488840185015294850194879450918301916144ac565b9250505061449c94925060ff1916828401521515810282010138808061448d565b60005b8381106145115750506000910152565b8181015183820152602001614501565b9060209161453a815180928185528580860191016144fe565b601f01601f1916010190565b926145666145829593614574938652608060208701526080860190614521565b908482036040860152614521565b916060818403910152614521565b90565b81601f8201121561027a5780359067ffffffffffffffff8211610b3957604051926145ba601f8401601f191660200185614438565b8284526020838301011161027a57816000926020809301838601378301015290565b608060031982011261027a5767ffffffffffffffff9160043583811161027a578261460991600401614585565b9260243581811161027a578361462191600401614585565b9260443591821161027a5761463891600401614585565b9060643590565b60206146589181604051938285809451938492016144fe565b8101600981520301902090565b60209061467f9282604051948386809551938492016144fe565b82019081520301902090565b94906146fc946146d260e098956146c46146ee966146e0959e9d9c9e600160a060020a0361010091168c528060208d01528b0190614521565b9089820360408b0152614521565b908782036060890152614521565b908582036080870152614521565b9083820360a0850152614521565b9460c08201520152565b9493926132f66060936147246147329460808a5260808a0190614521565b9088820360208a0152614521565b930152565b60a060031982011261027a5767ffffffffffffffff9160043583811161027a578261476491600401614585565b9260243581811161027a578361477c91600401614585565b9260443591821161027a5761479391600401614585565b906064359060843590565b600019811461177b5760010190565b8181106147b8575050565b600081556001016147ad565b33600052600460205233600160a060020a0360406000205416146000146147ea57600190565b600090565b6147f981546143fa565b9081614803575050565b81601f60009311600114614815575055565b9080839182526148336020601f8185209501048401600185016147ad565b5555565b600092918154614846816143fa565b926001918083169081156148a05750600114614863575b50505050565b9091929394506000526020906020600020906000915b85831061488f575050505001903880808061485d565b805485840152918301918101614879565b60ff191684525050508115159091020191503880808061485d565b33600052600560205233600160a060020a0360406000205416146000146147ea57600190565b9291614903906102a26040936040516020818951611b00818385809e016144fe565b60009283526020526040822090600c820154801561495d5791600b01835b8381106149315750505050905090565b80855281865233600160a060020a0384872054161461495257600101614921565b505050505050600190565b50505090509056fea2646970667358221220e16f6c34b428bdfbf3df7d1b02f34baa3448824811ac893657b4644259a255f364736f6c63430008170033",
  "immutableReferences": {},
  "source": "// SPDX-License-Identifier: MIT\n\npragma solidity >=0.5.0 <0.9.0;\n\ncontract Registry {\n    address public superAdmin;\n    uint256 public totalAdmins;\n    uint256 public totalVendors;\n    uint256 public totalTendors = 1000;\n\n    struct Admin {\n        address adminAddress;\n        string city;\n        string district;\n        string state;\n    }\n\n    struct Vendor {\n        address vendorAddress;\n        string city;\n        string district;\n        string state;\n        string year;\n        string vendortype;\n        uint256 rating;\n        uint256 noofRaters;\n    }\n\n    struct LandDetails {\n        address owner;\n        string tendertype;\n        string tenderName;\n        address admin;\n        string ipfsuri;\n        uint256 propertyId;\n        uint256 surveyNumber;\n        uint256 index;\n        bool registered;\n        uint256 marketValue;\n        bool markAvailable;\n        mapping(uint256 => RequestDetails) requests; // reqNo => RequestDetails\n        uint256 noOfRequests; // other users requested to this land\n    }\n\n    struct UserProfile {\n        address userAddr;\n        string fullName;\n        string gender;\n        string email;\n        string contact;\n        string residentialAddr;\n        uint256 totalIndices;\n        uint256 requestIndices; // this user requested to other lands\n    }\n\n    struct OwnerOwns {\n        uint256 surveyNumber;\n        string state;\n        string district;\n        string city;\n    }\n\n    struct AdminOwns {\n        uint256 surveyNo;\n        string state;\n        string district;\n        string city;\n        address AllocatedTo;\n    }\n\n    struct RequestedLands {\n        uint256 surveyNumber;\n        string state;\n        string district;\n        string city;\n    }\n\n    struct RequestDetails {\n        address whoRequested;\n        uint256 reqIndex;\n        uint256 BidAmount;\n        string FileURI;\n    }\n\n    mapping(address => Admin) public admins;\n    mapping(address => Vendor) public vendors;\n    mapping(address => mapping(uint256 => OwnerOwns)) public ownerMapsProperty;\n    mapping(address => mapping(uint256 => AdminOwns)) public adminMapsProperty; // ownerAddr => index no. => OwnerOwns\n    mapping(address => mapping(uint256 => RequestedLands))\n        public requestedLands; // ownerAddr => reqIndex => RequestedLands\n    mapping(string => mapping(string => mapping(string => mapping(uint256 => LandDetails))))\n        public landDetalsMap; // state => district => city => surveyNo => LandDetails\n    mapping(address => UserProfile) public userProfile;\n\n    constructor() {\n        superAdmin = msg.sender;\n    }\n\n    modifier onlyAdmin() {\n        require(\n            admins[msg.sender].adminAddress == msg.sender,\n            \"Only admin can Register land\"\n        );\n        _;\n    }\n\n    // SuperAdmin: Registers new admin\n    function addAdmin(\n        address _adminAddr,\n        string memory _state,\n        string memory _district,\n        string memory _city,\n        string memory _fullName,\n        string memory _gender,\n        string memory _email,\n        string memory _contact,\n        string memory _residentialAddr\n    ) external {\n        Admin storage newAdmin = admins[_adminAddr];\n        totalAdmins++;\n\n        newAdmin.adminAddress = _adminAddr;\n        newAdmin.city = _city;\n        newAdmin.district = _district;\n        newAdmin.state = _state;\n\n        UserProfile storage newUserProfile = userProfile[_adminAddr];\n\n        newUserProfile.fullName = _fullName;\n        newUserProfile.gender = _gender;\n        newUserProfile.email = _email;\n        newUserProfile.contact = _contact;\n        newUserProfile.residentialAddr = _residentialAddr;\n    }\n\n    function addVendor(\n        address _vendorAddr,\n        string memory _state,\n        string memory _district,\n        string memory _city,\n        string memory _fullName,\n        string memory _gender,\n        string memory _email,\n        string memory _contact,\n        string memory _residentialAddr,\n        string memory _year,\n        string memory _vendortype\n    ) external {\n        Vendor storage newVendor = vendors[_vendorAddr];\n        totalVendors++;\n\n        newVendor.vendorAddress = _vendorAddr;\n        newVendor.city = _city;\n        newVendor.district = _district;\n        newVendor.state = _state;\n        newVendor.rating = 5;\n        newVendor.noofRaters = 1;\n        newVendor.vendortype = _vendortype;\n        newVendor.year = _year;\n\n        UserProfile storage newUserProfile = userProfile[_vendorAddr];\n\n        newUserProfile.fullName = _fullName;\n        newUserProfile.gender = _gender;\n        newUserProfile.email = _email;\n        newUserProfile.contact = _contact;\n        newUserProfile.residentialAddr = _residentialAddr;\n    }\n\n    //function Give Rating\n    function GiveRating(address _vendortorating, uint256 _ratenumber) public {\n        vendors[_vendortorating].rating =\n            vendors[_vendortorating].rating +\n            _ratenumber;\n        vendors[_vendortorating].noofRaters++;\n    }\n\n    // check if it is admin\n    function isAdmin() external view returns (bool) {\n        if (admins[msg.sender].adminAddress == msg.sender) {\n            return true;\n        } else return false;\n    }\n\n    //Chekc if it is Vendor\n    function isVendor() external view returns (bool) {\n        if (vendors[msg.sender].vendorAddress == msg.sender) {\n            return true;\n        } else return false;\n    }\n\n    // Admin: registers land\n    function registerLand(\n        string memory _state,\n        string memory _district,\n        string memory _city,\n        uint256 _propertyId,\n        uint256 _surveyNo,\n        address _owner,\n        uint256 _marketValue,\n        string memory _tenderName,\n        string memory _tendertype,\n        string memory _ipfsuri\n    ) external onlyAdmin {\n        require(\n            keccak256(abi.encodePacked(admins[msg.sender].state)) ==\n                keccak256(abi.encodePacked(_state)) &&\n                keccak256(abi.encodePacked(admins[msg.sender].district)) ==\n                keccak256(abi.encodePacked(_district)) &&\n                keccak256(abi.encodePacked(admins[msg.sender].city)) ==\n                keccak256(abi.encodePacked(_city)),\n            \"Admin can only register land of same city.\"\n        );\n\n        require(\n            landDetalsMap[_state][_district][_city][totalTendors].registered ==\n                false,\n            \"Survey Number already registered!\"\n        );\n\n        LandDetails storage newLandRegistry = landDetalsMap[_state][_district][\n            _city\n        ][totalTendors];\n\n        OwnerOwns storage newOwnerOwns = ownerMapsProperty[msg.sender][\n            userProfile[msg.sender].totalIndices\n        ];\n\n        AdminOwns storage newAdminOwns = adminMapsProperty[msg.sender][\n            userProfile[msg.sender].totalIndices\n        ];\n\n        newLandRegistry.owner = _owner;\n        newLandRegistry.admin = msg.sender;\n        newLandRegistry.propertyId = totalTendors;\n        newLandRegistry.surveyNumber = totalTendors;\n        newLandRegistry.index = userProfile[_owner].totalIndices;\n        newLandRegistry.registered = true;\n        newLandRegistry.marketValue = _marketValue;\n        newLandRegistry.markAvailable = true;\n        newLandRegistry.tenderName = _tenderName;\n        newLandRegistry.tendertype = _tendertype;\n        newLandRegistry.ipfsuri = _ipfsuri;\n\n        newOwnerOwns.surveyNumber = totalTendors;\n        newOwnerOwns.state = _state;\n        newOwnerOwns.district = _district;\n        newOwnerOwns.city = _city;\n\n        userProfile[_owner].totalIndices++;\n\n        totalTendors++;\n    }\n\n    // User_1: set user profile\n    function setUserProfile(\n        string memory _fullName,\n        string memory _gender,\n        string memory _email,\n        string memory _contact,\n        string memory _residentialAddr\n    ) public {\n        UserProfile storage newUserProfile = userProfile[msg.sender];\n\n        newUserProfile.fullName = _fullName;\n        newUserProfile.gender = _gender;\n        newUserProfile.email = _email;\n        newUserProfile.contact = _contact;\n        newUserProfile.residentialAddr = _residentialAddr;\n    }\n\n    // User_1: mark property available\n    function markMyPropertyAvailable(uint256 indexNo) external {\n        string memory state = ownerMapsProperty[msg.sender][indexNo].state;\n        string memory district = ownerMapsProperty[msg.sender][indexNo]\n            .district;\n        string memory city = ownerMapsProperty[msg.sender][indexNo].city;\n        uint256 surveyNumber = ownerMapsProperty[msg.sender][indexNo]\n            .surveyNumber;\n\n        require(\n            landDetalsMap[state][district][city][surveyNumber].markAvailable ==\n                false,\n            \"Property already marked available\"\n        );\n\n        landDetalsMap[state][district][city][surveyNumber].markAvailable = true;\n    }\n\n    // User_2: Request for buy  ownerAddress & index = arguements\n    function RequestForBuy(\n        string memory _state,\n        string memory _district,\n        string memory _city,\n        uint256 _surveyNo,\n        uint256 _BidAmount,\n        string memory _FileURI\n    ) external {\n        LandDetails storage thisLandDetail = landDetalsMap[_state][_district][\n            _city\n        ][_surveyNo];\n        require(\n            thisLandDetail.markAvailable == true,\n            \"This property is NOT marked for sale!\"\n        );\n\n        uint256 req_serialNum = thisLandDetail.noOfRequests;\n        thisLandDetail.requests[req_serialNum].whoRequested = msg.sender;\n        thisLandDetail.requests[req_serialNum].reqIndex = userProfile[\n            msg.sender\n        ].requestIndices;\n        thisLandDetail.requests[req_serialNum].BidAmount = _BidAmount;\n        thisLandDetail.requests[req_serialNum].FileURI = _FileURI;\n        thisLandDetail.noOfRequests++;\n\n        // adding requested land to user_2 profile\n        RequestedLands storage newReqestedLands = requestedLands[msg.sender][\n            userProfile[msg.sender].requestIndices\n        ];\n        newReqestedLands.surveyNumber = _surveyNo;\n        newReqestedLands.state = _state;\n        newReqestedLands.district = _district;\n        newReqestedLands.city = _city;\n\n        userProfile[msg.sender].requestIndices++;\n    }\n\n    // User_1: Accept the buy request; sell.\n    function AcceptRequest(uint256 _index, uint256 _reqNo) public {\n        uint256 _surveyNo = ownerMapsProperty[msg.sender][_index].surveyNumber;\n        string memory _state = ownerMapsProperty[msg.sender][_index].state;\n        string memory _district = ownerMapsProperty[msg.sender][_index]\n            .district;\n        string memory _city = ownerMapsProperty[msg.sender][_index].city;\n\n        // updating LandDetails\n        address newOwner = landDetalsMap[_state][_district][_city][_surveyNo]\n            .requests[_reqNo]\n            .whoRequested;\n\n        uint256 newOwner_reqIndex = landDetalsMap[_state][_district][_city][\n            _surveyNo\n        ].requests[_reqNo].reqIndex;\n\n        uint256 noOfReq = landDetalsMap[_state][_district][_city][_surveyNo]\n            .noOfRequests;\n\n        // deleting requested land from all requesters AND removing all incoming requests\n        for (uint256 i = 0; i < noOfReq; i++) {\n            address requesterAddr = landDetalsMap[_state][_district][_city][\n                _surveyNo\n            ].requests[i].whoRequested;\n            uint256 requester_reqIndx = landDetalsMap[_state][_district][_city][\n                _surveyNo\n            ].requests[i].reqIndex;\n\n            delete requestedLands[requesterAddr][requester_reqIndx];\n            delete landDetalsMap[_state][_district][_city][_surveyNo].requests[\n                i\n            ];\n        }\n\n        landDetalsMap[_state][_district][_city][_surveyNo].owner = newOwner;\n        landDetalsMap[_state][_district][_city][_surveyNo]\n            .markAvailable = false;\n        landDetalsMap[_state][_district][_city][_surveyNo].noOfRequests = 0;\n\n        // deleting property from user_1's ownerMapsProperty\n        // delete ownerMapsProperty[msg.sender][_index];\n\n        // adding ownerMapsProperty for newOwner\n        uint256 newOwnerTotProp = userProfile[newOwner].totalIndices;\n        OwnerOwns storage newOwnerOwns = ownerMapsProperty[newOwner][\n            newOwnerTotProp\n        ];\n\n        newOwnerOwns.surveyNumber = _surveyNo;\n        newOwnerOwns.state = _state;\n        newOwnerOwns.district = _district;\n        newOwnerOwns.city = _city;\n\n        landDetalsMap[_state][_district][_city][_surveyNo]\n            .index = newOwnerTotProp;\n\n        userProfile[newOwner].totalIndices++;\n    }\n\n    //******* GETTERS **********\n\n    // return land details\n    function getLandDetails(\n        string memory _state,\n        string memory _district,\n        string memory _city,\n        uint256 _surveyNo\n    )\n        external\n        view\n        returns (\n            address,\n            uint256,\n            uint256,\n            uint256,\n            string memory,\n            string memory,\n            string memory\n        )\n    {\n        address owner = landDetalsMap[_state][_district][_city][_surveyNo]\n            .owner;\n        uint256 propertyid = landDetalsMap[_state][_district][_city][_surveyNo]\n            .propertyId;\n        uint256 indx = landDetalsMap[_state][_district][_city][_surveyNo].index;\n\n        uint256 mv = landDetalsMap[_state][_district][_city][_surveyNo]\n            .marketValue;\n\n        string memory tendorName = landDetalsMap[_state][_district][_city][\n            _surveyNo\n        ].tenderName;\n\n        string memory tendortype = landDetalsMap[_state][_district][_city][\n            _surveyNo\n        ].tendertype;\n\n        string memory ipfsuri = landDetalsMap[_state][_district][_city][\n            _surveyNo\n        ].ipfsuri;\n\n        return (owner, propertyid, indx, mv, tendorName, tendortype, ipfsuri);\n    }\n\n    function getRequestCnt_propId(\n        string memory _state,\n        string memory _district,\n        string memory _city,\n        uint256 _surveyNo\n    ) external view returns (uint256, uint256) {\n        uint256 _noOfRequests = landDetalsMap[_state][_district][_city][\n            _surveyNo\n        ].noOfRequests;\n        uint256 _propertyId = landDetalsMap[_state][_district][_city][_surveyNo]\n            .propertyId;\n        return (_noOfRequests, _propertyId);\n    }\n\n    function getRequesterDetail(\n        string memory _state,\n        string memory _district,\n        string memory _city,\n        uint256 _surveyNo,\n        uint256 _reqIndex\n    ) external view returns (address) {\n        address requester = landDetalsMap[_state][_district][_city][_surveyNo]\n            .requests[_reqIndex]\n            .whoRequested;\n\n        return (requester);\n    }\n\n    function getRequesterBidAmount(\n        string memory _state,\n        string memory _district,\n        string memory _city,\n        uint256 _surveyNo,\n        uint256 _reqIndex\n    ) external view returns (uint256) {\n        uint256 BidAmount = landDetalsMap[_state][_district][_city][_surveyNo]\n            .requests[_reqIndex]\n            .BidAmount;\n\n        return (BidAmount);\n    }\n\n    function getRequesterFileURI(\n        string memory _state,\n        string memory _district,\n        string memory _city,\n        uint256 _surveyNo,\n        uint256 _reqIndex\n    ) external view returns (string memory) {\n        string memory RequesterFileURI = landDetalsMap[_state][_district][\n            _city\n        ][_surveyNo].requests[_reqIndex].FileURI;\n\n        return (RequesterFileURI);\n    }\n\n    function getRequesterName(\n        string memory _state,\n        string memory _district,\n        string memory _city,\n        uint256 _surveyNo,\n        uint256 _reqIndex\n    ) external view returns (string memory) {\n        address requester = landDetalsMap[_state][_district][_city][_surveyNo]\n            .requests[_reqIndex]\n            .whoRequested;\n\n        string memory NameofRequester = userProfile[requester].fullName;\n        return (NameofRequester);\n    }\n\n    function isAvailable(\n        string memory _state,\n        string memory _district,\n        string memory _city,\n        uint256 _surveyNo\n    ) external view returns (bool) {\n        bool available = landDetalsMap[_state][_district][_city][_surveyNo]\n            .markAvailable;\n        return (available);\n    }\n\n    function getOwnerOwns(\n        uint256 indx\n    )\n        external\n        view\n        returns (string memory, string memory, string memory, uint256)\n    {\n        uint256 surveyNo = ownerMapsProperty[msg.sender][indx].surveyNumber;\n        string memory state = ownerMapsProperty[msg.sender][indx].state;\n        string memory district = ownerMapsProperty[msg.sender][indx].district;\n        string memory city = ownerMapsProperty[msg.sender][indx].city;\n\n        return (state, district, city, surveyNo);\n    }\n\n    function getAdminOwns(\n        uint256 indx\n    )\n        external\n        view\n        returns (string memory, string memory, string memory, uint256)\n    {\n        uint256 surveyNo = adminMapsProperty[msg.sender][indx].surveyNo;\n        string memory state = adminMapsProperty[msg.sender][indx].state;\n        string memory district = adminMapsProperty[msg.sender][indx].district;\n        string memory city = adminMapsProperty[msg.sender][indx].city;\n\n        return (state, district, city, surveyNo);\n    }\n\n    function getRequestedLands(\n        uint256 indx\n    )\n        external\n        view\n        returns (string memory, string memory, string memory, uint256)\n    {\n        uint256 surveyNo = requestedLands[msg.sender][indx].surveyNumber;\n        string memory state = requestedLands[msg.sender][indx].state;\n        string memory district = requestedLands[msg.sender][indx].district;\n        string memory city = requestedLands[msg.sender][indx].city;\n\n        return (state, district, city, surveyNo);\n    }\n\n    function getUserProfile()\n        external\n        view\n        returns (\n            string memory,\n            string memory,\n            string memory,\n            string memory,\n            string memory\n        )\n    {\n        string memory fullName = userProfile[msg.sender].fullName;\n        string memory gender = userProfile[msg.sender].gender;\n        string memory email = userProfile[msg.sender].email;\n        string memory contact = userProfile[msg.sender].contact;\n        string memory residentialAddr = userProfile[msg.sender].residentialAddr;\n\n        return (fullName, gender, email, contact, residentialAddr);\n    }\n\n    function getUserName(address _addr) external view returns (string memory) {\n        string memory fullName = userProfile[_addr].fullName;\n\n        return (fullName);\n    }\n\n    \n\n    function getestablishYear(\n        address _addr\n    ) external view returns (string memory) {\n        string memory year = vendors[_addr].year;\n\n        return (year);\n    }\n\n    function getIndices() external view returns (uint256, uint256) {\n        uint256 _totalIndices = userProfile[msg.sender].totalIndices;\n        uint256 _reqIndices = userProfile[msg.sender].requestIndices;\n\n        return (_totalIndices, _reqIndices);\n    }\n\n    function didIRequested(\n        string memory _state,\n        string memory _district,\n        string memory _city,\n        uint256 _surveyNo\n    ) external view returns (bool) {\n        LandDetails storage thisLandDetail = landDetalsMap[_state][_district][\n            _city\n        ][_surveyNo];\n        uint256 _noOfRequests = thisLandDetail.noOfRequests;\n\n        if (_noOfRequests == 0) return (false);\n\n        for (uint256 i = 0; i < _noOfRequests; i++) {\n            if (thisLandDetail.requests[i].whoRequested == msg.sender) {\n                return (true);\n            }\n        }\n\n        return (false);\n    }\n\n    function getTotalTendors() external view returns (uint256) {\n        return (totalTendors);\n    }\n}\n",
  "sourcePath": "C:\\Users\\hp\\Downloads\\EDI_Blockchain_2k23-master\\EDI_Blockchain_2k23-master\\contracts\\Registry.sol",
  "compiler": {
    "name": "solc",
    "version": "0.8.23+commit.f704f362.Emscripten.clang"
  },
  "schemaVersion": "3.4.15",
  "updatedAt": "2023-11-11T09:28:54.690Z",
  "networkType": "ethereum",
  "devdoc": {
    "kind": "dev",
    "methods": {},
    "version": 1
  },
  "userdoc": {
    "kind": "user",
    "methods": {},
    "version": 1
  }
}