{
  "contractName": "Registry",
  "abi": [
    {
      "inputs": [],
      "stateMutability": "nonpayable",
      "type": "constructor"
    },
    {
      "inputs": [
        {
          "internalType": "address",
          "name": "",
          "type": "address"
        },
        {
          "internalType": "uint256",
          "name": "",
          "type": "uint256"
        }
      ],
      "name": "adminMapsProperty",
      "outputs": [
        {
          "internalType": "uint256",
          "name": "surveyNo",
          "type": "uint256"
        },
        {
          "internalType": "string",
          "name": "state",
          "type": "string"
        },
        {
          "internalType": "string",
          "name": "district",
          "type": "string"
        },
        {
          "internalType": "string",
          "name": "city",
          "type": "string"
        },
        {
          "internalType": "address",
          "name": "AllocatedTo",
          "type": "address"
        }
      ],
      "stateMutability": "view",
      "type": "function",
      "constant": true
    },
    {
      "inputs": [
        {
          "internalType": "address",
          "name": "",
          "type": "address"
        }
      ],
      "name": "admins",
      "outputs": [
        {
          "internalType": "address",
          "name": "adminAddress",
          "type": "address"
        },
        {
          "internalType": "string",
          "name": "city",
          "type": "string"
        },
        {
          "internalType": "string",
          "name": "district",
          "type": "string"
        },
        {
          "internalType": "string",
          "name": "state",
          "type": "string"
        }
      ],
      "stateMutability": "view",
      "type": "function",
      "constant": true
    },
    {
      "inputs": [
        {
          "internalType": "string",
          "name": "",
          "type": "string"
        },
        {
          "internalType": "string",
          "name": "",
          "type": "string"
        },
        {
          "internalType": "string",
          "name": "",
          "type": "string"
        },
        {
          "internalType": "uint256",
          "name": "",
          "type": "uint256"
        }
      ],
      "name": "landDetalsMap",
      "outputs": [
        {
          "internalType": "address",
          "name": "owner",
          "type": "address"
        },
        {
          "internalType": "string",
          "name": "tendertype",
          "type": "string"
        },
        {
          "internalType": "string",
          "name": "tenderName",
          "type": "string"
        },
        {
          "internalType": "address",
          "name": "admin",
          "type": "address"
        },
        {
          "internalType": "string",
          "name": "ipfsuri",
          "type": "string"
        },
        {
          "internalType": "uint256",
          "name": "propertyId",
          "type": "uint256"
        },
        {
          "internalType": "uint256",
          "name": "surveyNumber",
          "type": "uint256"
        },
        {
          "internalType": "uint256",
          "name": "index",
          "type": "uint256"
        },
        {
          "internalType": "bool",
          "name": "registered",
          "type": "bool"
        },
        {
          "internalType": "uint256",
          "name": "marketValue",
          "type": "uint256"
        },
        {
          "internalType": "bool",
          "name": "markAvailable",
          "type": "bool"
        },
        {
          "internalType": "uint256",
          "name": "noOfRequests",
          "type": "uint256"
        }
      ],
      "stateMutability": "view",
      "type": "function",
      "constant": true
    },
    {
      "inputs": [
        {
          "internalType": "address",
          "name": "",
          "type": "address"
        },
        {
          "internalType": "uint256",
          "name": "",
          "type": "uint256"
        }
      ],
      "name": "ownerMapsProperty",
      "outputs": [
        {
          "internalType": "uint256",
          "name": "surveyNumber",
          "type": "uint256"
        },
        {
          "internalType": "string",
          "name": "state",
          "type": "string"
        },
        {
          "internalType": "string",
          "name": "district",
          "type": "string"
        },
        {
          "internalType": "string",
          "name": "city",
          "type": "string"
        }
      ],
      "stateMutability": "view",
      "type": "function",
      "constant": true
    },
    {
      "inputs": [
        {
          "internalType": "address",
          "name": "",
          "type": "address"
        },
        {
          "internalType": "uint256",
          "name": "",
          "type": "uint256"
        }
      ],
      "name": "requestedLands",
      "outputs": [
        {
          "internalType": "uint256",
          "name": "surveyNumber",
          "type": "uint256"
        },
        {
          "internalType": "string",
          "name": "state",
          "type": "string"
        },
        {
          "internalType": "string",
          "name": "district",
          "type": "string"
        },
        {
          "internalType": "string",
          "name": "city",
          "type": "string"
        }
      ],
      "stateMutability": "view",
      "type": "function",
      "constant": true
    },
    {
      "inputs": [],
      "name": "superAdmin",
      "outputs": [
        {
          "internalType": "address",
          "name": "",
          "type": "address"
        }
      ],
      "stateMutability": "view",
      "type": "function",
      "constant": true
    },
    {
      "inputs": [],
      "name": "totalAdmins",
      "outputs": [
        {
          "internalType": "uint256",
          "name": "",
          "type": "uint256"
        }
      ],
      "stateMutability": "view",
      "type": "function",
      "constant": true
    },
    {
      "inputs": [],
      "name": "totalTendors",
      "outputs": [
        {
          "internalType": "uint256",
          "name": "",
          "type": "uint256"
        }
      ],
      "stateMutability": "view",
      "type": "function",
      "constant": true
    },
    {
      "inputs": [],
      "name": "totalVendors",
      "outputs": [
        {
          "internalType": "uint256",
          "name": "",
          "type": "uint256"
        }
      ],
      "stateMutability": "view",
      "type": "function",
      "constant": true
    },
    {
      "inputs": [
        {
          "internalType": "address",
          "name": "",
          "type": "address"
        }
      ],
      "name": "userProfile",
      "outputs": [
        {
          "internalType": "address",
          "name": "userAddr",
          "type": "address"
        },
        {
          "internalType": "string",
          "name": "fullName",
          "type": "string"
        },
        {
          "internalType": "string",
          "name": "gender",
          "type": "string"
        },
        {
          "internalType": "string",
          "name": "email",
          "type": "string"
        },
        {
          "internalType": "string",
          "name": "contact",
          "type": "string"
        },
        {
          "internalType": "string",
          "name": "residentialAddr",
          "type": "string"
        },
        {
          "internalType": "uint256",
          "name": "totalIndices",
          "type": "uint256"
        },
        {
          "internalType": "uint256",
          "name": "requestIndices",
          "type": "uint256"
        }
      ],
      "stateMutability": "view",
      "type": "function",
      "constant": true
    },
    {
      "inputs": [
        {
          "internalType": "address",
          "name": "",
          "type": "address"
        }
      ],
      "name": "vendors",
      "outputs": [
        {
          "internalType": "address",
          "name": "vendorAddress",
          "type": "address"
        },
        {
          "internalType": "string",
          "name": "city",
          "type": "string"
        },
        {
          "internalType": "string",
          "name": "district",
          "type": "string"
        },
        {
          "internalType": "string",
          "name": "state",
          "type": "string"
        },
        {
          "internalType": "string",
          "name": "year",
          "type": "string"
        },
        {
          "internalType": "string",
          "name": "vendortype",
          "type": "string"
        },
        {
          "internalType": "uint256",
          "name": "rating",
          "type": "uint256"
        },
        {
          "internalType": "uint256",
          "name": "noofRaters",
          "type": "uint256"
        }
      ],
      "stateMutability": "view",
      "type": "function",
      "constant": true
    },
    {
      "inputs": [
        {
          "internalType": "address",
          "name": "_adminAddr",
          "type": "address"
        },
        {
          "internalType": "string",
          "name": "_state",
          "type": "string"
        },
        {
          "internalType": "string",
          "name": "_district",
          "type": "string"
        },
        {
          "internalType": "string",
          "name": "_city",
          "type": "string"
        },
        {
          "internalType": "string",
          "name": "_fullName",
          "type": "string"
        },
        {
          "internalType": "string",
          "name": "_gender",
          "type": "string"
        },
        {
          "internalType": "string",
          "name": "_email",
          "type": "string"
        },
        {
          "internalType": "string",
          "name": "_contact",
          "type": "string"
        },
        {
          "internalType": "string",
          "name": "_residentialAddr",
          "type": "string"
        }
      ],
      "name": "addAdmin",
      "outputs": [],
      "stateMutability": "nonpayable",
      "type": "function"
    },
    {
      "inputs": [
        {
          "internalType": "address",
          "name": "_vendorAddr",
          "type": "address"
        },
        {
          "internalType": "string",
          "name": "_state",
          "type": "string"
        },
        {
          "internalType": "string",
          "name": "_district",
          "type": "string"
        },
        {
          "internalType": "string",
          "name": "_city",
          "type": "string"
        },
        {
          "internalType": "string",
          "name": "_fullName",
          "type": "string"
        },
        {
          "internalType": "string",
          "name": "_gender",
          "type": "string"
        },
        {
          "internalType": "string",
          "name": "_email",
          "type": "string"
        },
        {
          "internalType": "string",
          "name": "_contact",
          "type": "string"
        },
        {
          "internalType": "string",
          "name": "_residentialAddr",
          "type": "string"
        },
        {
          "internalType": "string",
          "name": "_year",
          "type": "string"
        },
        {
          "internalType": "string",
          "name": "_vendortype",
          "type": "string"
        }
      ],
      "name": "addVendor",
      "outputs": [],
      "stateMutability": "nonpayable",
      "type": "function"
    },
    {
      "inputs": [
        {
          "internalType": "address",
          "name": "_vendortorating",
          "type": "address"
        },
        {
          "internalType": "uint256",
          "name": "_ratenumber",
          "type": "uint256"
        }
      ],
      "name": "GiveRating",
      "outputs": [],
      "stateMutability": "nonpayable",
      "type": "function"
    },
    {
      "inputs": [],
      "name": "isAdmin",
      "outputs": [
        {
          "internalType": "bool",
          "name": "",
          "type": "bool"
        }
      ],
      "stateMutability": "view",
      "type": "function",
      "constant": true
    },
    {
      "inputs": [],
      "name": "isVendor",
      "outputs": [
        {
          "internalType": "bool",
          "name": "",
          "type": "bool"
        }
      ],
      "stateMutability": "view",
      "type": "function",
      "constant": true
    },
    {
      "inputs": [
        {
          "internalType": "string",
          "name": "_state",
          "type": "string"
        },
        {
          "internalType": "string",
          "name": "_district",
          "type": "string"
        },
        {
          "internalType": "string",
          "name": "_city",
          "type": "string"
        },
        {
          "internalType": "uint256",
          "name": "_propertyId",
          "type": "uint256"
        },
        {
          "internalType": "uint256",
          "name": "_surveyNo",
          "type": "uint256"
        },
        {
          "internalType": "address",
          "name": "_owner",
          "type": "address"
        },
        {
          "internalType": "uint256",
          "name": "_marketValue",
          "type": "uint256"
        },
        {
          "internalType": "string",
          "name": "_tenderName",
          "type": "string"
        },
        {
          "internalType": "string",
          "name": "_tendertype",
          "type": "string"
        },
        {
          "internalType": "string",
          "name": "_ipfsuri",
          "type": "string"
        }
      ],
      "name": "registerLand",
      "outputs": [],
      "stateMutability": "nonpayable",
      "type": "function"
    },
    {
      "inputs": [
        {
          "internalType": "string",
          "name": "_fullName",
          "type": "string"
        },
        {
          "internalType": "string",
          "name": "_gender",
          "type": "string"
        },
        {
          "internalType": "string",
          "name": "_email",
          "type": "string"
        },
        {
          "internalType": "string",
          "name": "_contact",
          "type": "string"
        },
        {
          "internalType": "string",
          "name": "_residentialAddr",
          "type": "string"
        }
      ],
      "name": "setUserProfile",
      "outputs": [],
      "stateMutability": "nonpayable",
      "type": "function"
    },
    {
      "inputs": [
        {
          "internalType": "uint256",
          "name": "indexNo",
          "type": "uint256"
        }
      ],
      "name": "markMyPropertyAvailable",
      "outputs": [],
      "stateMutability": "nonpayable",
      "type": "function"
    },
    {
      "inputs": [
        {
          "internalType": "string",
          "name": "_state",
          "type": "string"
        },
        {
          "internalType": "string",
          "name": "_district",
          "type": "string"
        },
        {
          "internalType": "string",
          "name": "_city",
          "type": "string"
        },
        {
          "internalType": "uint256",
          "name": "_surveyNo",
          "type": "uint256"
        },
        {
          "internalType": "uint256",
          "name": "_BidAmount",
          "type": "uint256"
        }
      ],
      "name": "RequestForBuy",
      "outputs": [],
      "stateMutability": "nonpayable",
      "type": "function"
    },
    {
      "inputs": [
        {
          "internalType": "uint256",
          "name": "_index",
          "type": "uint256"
        },
        {
          "internalType": "uint256",
          "name": "_reqNo",
          "type": "uint256"
        }
      ],
      "name": "AcceptRequest",
      "outputs": [],
      "stateMutability": "nonpayable",
      "type": "function"
    },
    {
      "inputs": [
        {
          "internalType": "string",
          "name": "_state",
          "type": "string"
        },
        {
          "internalType": "string",
          "name": "_district",
          "type": "string"
        },
        {
          "internalType": "string",
          "name": "_city",
          "type": "string"
        },
        {
          "internalType": "uint256",
          "name": "_surveyNo",
          "type": "uint256"
        }
      ],
      "name": "getLandDetails",
      "outputs": [
        {
          "internalType": "address",
          "name": "",
          "type": "address"
        },
        {
          "internalType": "uint256",
          "name": "",
          "type": "uint256"
        },
        {
          "internalType": "uint256",
          "name": "",
          "type": "uint256"
        },
        {
          "internalType": "uint256",
          "name": "",
          "type": "uint256"
        },
        {
          "internalType": "string",
          "name": "",
          "type": "string"
        },
        {
          "internalType": "string",
          "name": "",
          "type": "string"
        },
        {
          "internalType": "string",
          "name": "",
          "type": "string"
        }
      ],
      "stateMutability": "view",
      "type": "function",
      "constant": true
    },
    {
      "inputs": [
        {
          "internalType": "string",
          "name": "_state",
          "type": "string"
        },
        {
          "internalType": "string",
          "name": "_district",
          "type": "string"
        },
        {
          "internalType": "string",
          "name": "_city",
          "type": "string"
        },
        {
          "internalType": "uint256",
          "name": "_surveyNo",
          "type": "uint256"
        }
      ],
      "name": "getRequestCnt_propId",
      "outputs": [
        {
          "internalType": "uint256",
          "name": "",
          "type": "uint256"
        },
        {
          "internalType": "uint256",
          "name": "",
          "type": "uint256"
        }
      ],
      "stateMutability": "view",
      "type": "function",
      "constant": true
    },
    {
      "inputs": [
        {
          "internalType": "string",
          "name": "_state",
          "type": "string"
        },
        {
          "internalType": "string",
          "name": "_district",
          "type": "string"
        },
        {
          "internalType": "string",
          "name": "_city",
          "type": "string"
        },
        {
          "internalType": "uint256",
          "name": "_surveyNo",
          "type": "uint256"
        },
        {
          "internalType": "uint256",
          "name": "_reqIndex",
          "type": "uint256"
        }
      ],
      "name": "getRequesterDetail",
      "outputs": [
        {
          "internalType": "address",
          "name": "",
          "type": "address"
        }
      ],
      "stateMutability": "view",
      "type": "function",
      "constant": true
    },
    {
      "inputs": [
        {
          "internalType": "string",
          "name": "_state",
          "type": "string"
        },
        {
          "internalType": "string",
          "name": "_district",
          "type": "string"
        },
        {
          "internalType": "string",
          "name": "_city",
          "type": "string"
        },
        {
          "internalType": "uint256",
          "name": "_surveyNo",
          "type": "uint256"
        },
        {
          "internalType": "uint256",
          "name": "_reqIndex",
          "type": "uint256"
        }
      ],
      "name": "getRequesterBidAmount",
      "outputs": [
        {
          "internalType": "uint256",
          "name": "",
          "type": "uint256"
        }
      ],
      "stateMutability": "view",
      "type": "function",
      "constant": true
    },
    {
      "inputs": [
        {
          "internalType": "string",
          "name": "_state",
          "type": "string"
        },
        {
          "internalType": "string",
          "name": "_district",
          "type": "string"
        },
        {
          "internalType": "string",
          "name": "_city",
          "type": "string"
        },
        {
          "internalType": "uint256",
          "name": "_surveyNo",
          "type": "uint256"
        },
        {
          "internalType": "uint256",
          "name": "_reqIndex",
          "type": "uint256"
        }
      ],
      "name": "getRequesterName",
      "outputs": [
        {
          "internalType": "string",
          "name": "",
          "type": "string"
        }
      ],
      "stateMutability": "view",
      "type": "function",
      "constant": true
    },
    {
      "inputs": [
        {
          "internalType": "string",
          "name": "_state",
          "type": "string"
        },
        {
          "internalType": "string",
          "name": "_district",
          "type": "string"
        },
        {
          "internalType": "string",
          "name": "_city",
          "type": "string"
        },
        {
          "internalType": "uint256",
          "name": "_surveyNo",
          "type": "uint256"
        }
      ],
      "name": "isAvailable",
      "outputs": [
        {
          "internalType": "bool",
          "name": "",
          "type": "bool"
        }
      ],
      "stateMutability": "view",
      "type": "function",
      "constant": true
    },
    {
      "inputs": [
        {
          "internalType": "uint256",
          "name": "indx",
          "type": "uint256"
        }
      ],
      "name": "getOwnerOwns",
      "outputs": [
        {
          "internalType": "string",
          "name": "",
          "type": "string"
        },
        {
          "internalType": "string",
          "name": "",
          "type": "string"
        },
        {
          "internalType": "string",
          "name": "",
          "type": "string"
        },
        {
          "internalType": "uint256",
          "name": "",
          "type": "uint256"
        }
      ],
      "stateMutability": "view",
      "type": "function",
      "constant": true
    },
    {
      "inputs": [
        {
          "internalType": "uint256",
          "name": "indx",
          "type": "uint256"
        }
      ],
      "name": "getAdminOwns",
      "outputs": [
        {
          "internalType": "string",
          "name": "",
          "type": "string"
        },
        {
          "internalType": "string",
          "name": "",
          "type": "string"
        },
        {
          "internalType": "string",
          "name": "",
          "type": "string"
        },
        {
          "internalType": "uint256",
          "name": "",
          "type": "uint256"
        }
      ],
      "stateMutability": "view",
      "type": "function",
      "constant": true
    },
    {
      "inputs": [
        {
          "internalType": "uint256",
          "name": "indx",
          "type": "uint256"
        }
      ],
      "name": "getRequestedLands",
      "outputs": [
        {
          "internalType": "string",
          "name": "",
          "type": "string"
        },
        {
          "internalType": "string",
          "name": "",
          "type": "string"
        },
        {
          "internalType": "string",
          "name": "",
          "type": "string"
        },
        {
          "internalType": "uint256",
          "name": "",
          "type": "uint256"
        }
      ],
      "stateMutability": "view",
      "type": "function",
      "constant": true
    },
    {
      "inputs": [],
      "name": "getUserProfile",
      "outputs": [
        {
          "internalType": "string",
          "name": "",
          "type": "string"
        },
        {
          "internalType": "string",
          "name": "",
          "type": "string"
        },
        {
          "internalType": "string",
          "name": "",
          "type": "string"
        },
        {
          "internalType": "string",
          "name": "",
          "type": "string"
        },
        {
          "internalType": "string",
          "name": "",
          "type": "string"
        }
      ],
      "stateMutability": "view",
      "type": "function",
      "constant": true
    },
    {
      "inputs": [
        {
          "internalType": "address",
          "name": "_addr",
          "type": "address"
        }
      ],
      "name": "getUserName",
      "outputs": [
        {
          "internalType": "string",
          "name": "",
          "type": "string"
        }
      ],
      "stateMutability": "view",
      "type": "function",
      "constant": true
    },
    {
      "inputs": [
        {
          "internalType": "address",
          "name": "_addr",
          "type": "address"
        }
      ],
      "name": "getestablishYear",
      "outputs": [
        {
          "internalType": "string",
          "name": "",
          "type": "string"
        }
      ],
      "stateMutability": "view",
      "type": "function",
      "constant": true
    },
    {
      "inputs": [],
      "name": "getIndices",
      "outputs": [
        {
          "internalType": "uint256",
          "name": "",
          "type": "uint256"
        },
        {
          "internalType": "uint256",
          "name": "",
          "type": "uint256"
        }
      ],
      "stateMutability": "view",
      "type": "function",
      "constant": true
    },
    {
      "inputs": [
        {
          "internalType": "string",
          "name": "_state",
          "type": "string"
        },
        {
          "internalType": "string",
          "name": "_district",
          "type": "string"
        },
        {
          "internalType": "string",
          "name": "_city",
          "type": "string"
        },
        {
          "internalType": "uint256",
          "name": "_surveyNo",
          "type": "uint256"
        }
      ],
      "name": "didIRequested",
      "outputs": [
        {
          "internalType": "bool",
          "name": "",
          "type": "bool"
        }
      ],
      "stateMutability": "view",
      "type": "function",
      "constant": true
    },
    {
      "inputs": [],
      "name": "getTotalTendors",
      "outputs": [
        {
          "internalType": "uint256",
          "name": "",
          "type": "uint256"
        }
      ],
      "stateMutability": "view",
      "type": "function",
      "constant": true
    }
  ],
  "bytecode": "0x6080806040523461002e576103e860035560008054600160a060020a0319163317905561477e90816100348239f35b600080fdfe6080604052600436101561001257600080fd5b7c01000000000000000000000000000000000000000000000000000000006000350480630e2279af146141795780631555ff1e1461405e5780631c8e89621461401b578063253bc13c14613fde57806327e30c3614613f5157806329575f6a14613f2a5780632ca305f314613e8f5780633bbd43b314613e49578063429b62e514613db157806344e0573414613c3b5780635863056d14613c055780636b31f326146137ce5780636d1b9a8e146137335780636f61c7441461364a578063757612ef14612cc857806379ecc8cb146110ce5780638b5bcc3d14612c1057806398faad5514612bf2578063992369da14612bb2578063a3743d5c14611f98578063aa9c0dcd146119d0578063abb5cd0514611979578063b6db75a01461195e578063d06efd67146118e8578063d1dbeff214611874578063d41cc5c81461116a578063d44cafa5146110ec578063d67b6628146110ce578063d84f55ee1461107d578063dd7cee4914610563578063e331ad7c14610325578063e7217f161461030a578063eaec23fa146102e4578063eb68048b146102c6578063f70e8d44146102745763fc47f57d146101c457600080fd5b3461026f5760208060031936011261026f576004353360005260078252604060002081600052825261026b60406000205433600052600784526040600020836000528452610218600160406000200161423d565b923360005260078552604060002081600052855261023c600260406000200161423d565b9433600052600781526040600020916000525261025f600360406000200161423d565b604051948594856144e9565b0390f35b600080fd5b3461026f5761029761029761029d61028b3661451a565b96929193959095614422565b90614448565b90600052602052600b604060002001906000526020526020600260406000200154604051908152f35b3461026f57600036600319011261026f576020600154604051908152f35b3461026f5760206103006102f7366143bf565b929190916146c4565b6040519015158152f35b3461026f57600036600319011261026f57602061030061469e565b3461026f57610333366143bf565b91926040519080516020958683019161034d8186856142e1565b8401938781600996878152030190206103669082614448565b6103709086614448565b866000528752604060002054600160a060020a031695604051888186516103988183896142e1565b8101888152030190206103ab9083614448565b6103b59087614448565b81600052885260406000206005015495604051898187516103d781838a6142e1565b8101898152030190206103ea9084614448565b6103f49082614448565b826000528952604060002060070154926040518a81885161041681838b6142e1565b81018a8152030190206104299082614448565b6104339083614448565b836000528a528660406000200154946040518b8189516104548183876142e1565b81018b8152030190206104679083614448565b6104719084614448565b846000528b528a60406000206002016104899061423d565b976040518281835161049c8183896142e1565b81018d8152030190206104af9085614448565b6104b99086614448565b86600052825260406000206001016104d09061423d565b99604051809481935180926104e4926142e1565b8201908152030190206104f691614448565b6104ff91614448565b90600052875260406000206004016105169061423d565b946040519788978852870152604086015260608501526080840160e0905260e0840161054191614304565b83810360a085015261055291614304565b82810360c084015261026b91614304565b3461026f5761014036600319011261026f5760043567ffffffffffffffff811161026f57610595903690600401614368565b60243567ffffffffffffffff811161026f576105b5903690600401614368565b9060443567ffffffffffffffff811161026f576105d6903690600401614368565b60a43591600160a060020a0393848416840361026f5760e43567ffffffffffffffff811161026f5761060c903690600401614368565b916101043567ffffffffffffffff811161026f5761062e903690600401614368565b6101243567ffffffffffffffff811161026f5761064f903690600401614368565b336000526004602052338860406000205416036110365733600052600460205261068d61069b6003604060002001604051928391602083019061461a565b03601f19810183528261421b565b6020815191012060405160208101906106cc60208288516106bf8187858d016142e1565b810103808452018261421b565b5190201480610fe4575b80610f92575b15610f255761071261070c60405160208187516106fc8183858c016142e1565b8101600981520301902086614448565b87614448565b600354908160005260205260ff60086040600020015416610eb85761075e61075860405160208188516107488183858d016142e1565b8101600981520301902087614448565b88614448565b906000526020526040600020913360005260066020526040600020600a602052600660406000200154600052602052604060002095600a602052600160a060020a03198a8a168186541617855560038501903390825416179055600354806005860155600685015589891660005260066040600020015460078501556008840160ff199060018282541617905560c43560098601556001600a86019182541617905580519067ffffffffffffffff8211610b2e5761081f60028601546141dd565b601f8111610e82575b50602090601f8311600114610e0f5761085c929160009183610e04575b5050816002029160080260020a6000190419161790565b60028401555b80519067ffffffffffffffff8211610b2e5761088160018501546141dd565b601f8111610dce575b50602090601f8311600114610d5b576108bd929160009183610ca7575050816002029160080260020a6000190419161790565b60018301555b80519067ffffffffffffffff8211610b2e576108e260048401546141dd565b601f8111610d25575b50602090601f8311600114610cb257918061092192600494600092610ca7575050816002029160080260020a6000190419161790565b9101555b600354835580519067ffffffffffffffff8211610b2e5761094960018501546141dd565b601f8111610c71575b50602090601f8311600114610bfe57610985929160009183610b47575050816002029160080260020a6000190419161790565b60018301555b80519067ffffffffffffffff8211610b2e576109aa60028401546141dd565b601f8111610bc8575b50602090601f8311600114610b525791806109ea9260039594600092610b47575050816002029160080260020a6000190419161790565b60028201555b019080519067ffffffffffffffff8211610b2e57610a0e83546141dd565b601f8111610af0575b50602090601f8311600114610a8557610a4a929160009183610a7a575050816002029160080260020a6000190419161790565b90555b16600052600a6020526006604060002001610a688154614581565b9055610a75600354614581565b600355005b015190508680610845565b90601f198316918460005260206000209260005b818110610ad857509160029391856001969410610abd575b50505002019055610a4d565b01516008601f841602840a6000190419169055868080610ab1565b92936020600181928786015181550195019301610a99565b610b1e908460005260206000206020601f86010481019160208610610b24575b601f60209101040190614590565b85610a17565b9091508190610b10565b60e060020a634e487b7102600052604160045260246000fd5b015190508880610845565b906002840160005260206000209160005b601f1985168110610bb05750926001926002926003969583601f19811610610b95575b505050020160028201556109f0565b01516008601f841602840a6000190419169055888080610b86565b91926020600181928685015181550194019201610b63565b610bf8906002850160005260206000206020601f86010481019160208610610b2457601f60209101040190614590565b866109b3565b906001850160005260206000209160005b601f1985168110610c595750918391600293600195601f19811610610c3e575b5050500201600183015561098b565b01516008601f841602840a6000190419169055888080610c2f565b91926020600181928685015181550194019201610c0f565b610ca1906001860160005260206000206020601f86010481019160208610610b2457601f60209101040190614590565b87610952565b015190508b80610845565b906004840160005260206000209160005b601f1985168110610d0d57509260019260029260049583601f19811610610cf2575b5050500201910155610925565b01516008601f841602840a60001904191690558b8080610ce5565b91926020600181928685015181550194019201610cc3565b610d55906004850160005260206000206020601f86010481019160208610610b2457601f60209101040190614590565b896108eb565b906001850160005260206000209160005b601f1985168110610db65750918391600293600195601f19811610610d9b575b505050020160018301556108c3565b01516008601f841602840a60001904191690558b8080610d8c565b91926020600181928685015181550194019201610d6c565b610dfe906001860160005260206000206020601f86010481019160208610610b2457601f60209101040190614590565b8a61088a565b015190508c80610845565b906002860160005260206000209160005b601f1985168110610e6a5750918391600293600195601f19811610610e4f575b50505002016002840155610862565b01516008601f841602840a60001904191690558c8080610e40565b91926020600181928685015181550194019201610e20565b610eb2906002870160005260206000206020601f86010481019160208610610b2457601f60209101040190614590565b8b610828565b608460405160e560020a62461bcd02815260206004820152602160248201527f537572766579204e756d62657220616c7265616479207265676973746572656460448201527f21000000000000000000000000000000000000000000000000000000000000006064820152fd5b608460405160e560020a62461bcd02815260206004820152602a60248201527f41646d696e2063616e206f6e6c79207265676973746572206c616e64206f662060448201527f73616d6520636974792e000000000000000000000000000000000000000000006064820152fd5b503360005260046020526001604060002001604051610fb98161068d60208201809561461a565b5190206040516020810190610fdb602082816106bf8d878151938492016142e1565b519020146106dc565b50336000526004602052600260406000200160405161100b8161068d60208201809561461a565b519020604051602081019061102d602082816106bf8b878151938492016142e1565b519020146106d6565b606460405160e560020a62461bcd02815260206004820152601c60248201527f4f6e6c792061646d696e2063616e205265676973746572206c616e64000000006044820152fd5b3461026f57602036600319011261026f57600160a060020a0361109e6141c7565b16600052600a60205261026b6110ba600160406000200161423d565b604051918291602083526020830190614304565b3461026f57600036600319011261026f576020600354604051908152f35b3461026f57604036600319011261026f57600160a060020a0361110d6141c7565b16806000526005602052600660406000200154602435810180911161115157600791600052600560205260406000209060068201550161114d8154614581565b9055005b60e060020a634e487b7102600052601160045260246000fd5b3461026f57604036600319011261026f5733600090815260066020908152604080832060043580855292529091208054906111a79060010161423d565b913360005260066020526040600020816000526020526111cd600260406000200161423d565b903360005260066020526040600020906000526020526111f3600360406000200161423d565b9161122561121f604051602081885161120f8183858d016142e1565b8101600981520301902084614448565b84614448565b81600052602052600b604060002001602435600052602052600160a060020a03604060002054169261128061127a6040516020818161126a8b838151938492016142e1565b8101600981520301902085614448565b82614448565b82600052602052600b6040600020016024356000526020526112b561127a6040516020818161126a8b838151938492016142e1565b82600052602052600c6040600020015460005b8181106117375750506112ee61127a6040516020818161126a8b838151938492016142e1565b82600052602052604060002084600160a060020a031982541617905561132761127a6040516020818161126a8b838151938492016142e1565b82600052602052600a60406000200160ff19815416905561135b61127a6040516020818161126a8b838151938492016142e1565b826000526020526000600c60408220015583600052600a602052600660406000200154926006602052604060002084600052602052604060002095838755805167ffffffffffffffff8111610b2e576113b760018901546141dd565b601f8111611701575b506020601f82116001146116915790806113f292600091611686575b50816002029160080260020a6000190419161790565b60018801555b815167ffffffffffffffff8111610b2e5761141660028901546141dd565b601f8111611650575b506020601f82116001146115e0579080611450926000916115d55750816002029160080260020a6000190419161790565b60028801555b82519667ffffffffffffffff8811610b2e5761147560038201546141dd565b601f811161159f575b50602097601f811160011461151f5761029793926114da9260036114c3846020956114ea9b9c9d9e6000916115145750816002029160080260020a6000190419161790565b9101555b81604051938285809451938492016142e1565b8101600981520301902090614448565b90600052602052600760406000200155600052600a602052600660406000200161114d8154614581565b90508a01518f6113dc565b60038201600052602060002060005b601f19831681106115875750926114da926003600160028561029799986114ea9c9d9e9f602098601f1981161061156c575b505002019101556114c7565b8c01516008601f841602840a60001904191690558f80611560565b868b0151825560209a8b019a6001909201910161152e565b6115cf906003830160005260206000206020601f8c010481019160208c10610b2457601f60209101040190614590565b8861147e565b90508401518a6113dc565b6002890160005260206000209060005b601f198416811061163857509160029160019382601f1981161061161d575b505002016002880155611456565b8601516008601f841602840a60001904191690558a8061160f565b909160206001819285890151815501930191016115f0565b6116809060028a0160005260206000206020601f85010481019160208510610b2457601f60209101040190614590565b8861141f565b90508301518a6113dc565b6001890160005260206000209060005b601f19841681106116e957509160029160019382601f198116106116ce575b5050020160018801556113f8565b8501516008601f841602840a60001904191690558a806116c0565b909160206001819285880151815501930191016116a1565b6117319060018a0160005260206000206020601f85010481019160208510610b2457601f60209101040190614590565b886113c0565b60019061176f61176961175960208b81604051938285809451938492016142e1565b8101600981520301902088614448565b85614448565b85600052602052600b60406000200181600052602052600160a060020a03604060002054166117c96117c36117b360208c81604051938285809451938492016142e1565b8101600981520301902089614448565b86614448565b86600052602052600b60406000200182600052602052826040600020015490600052600860205260406000209060005260205261182760036040600020600081556118158582016145d2565b611821600282016145d2565b016145d2565b61184661176961175960208b81604051938285809451938492016142e1565b85600052602052600b60406000200181600052602052600060026040822082815582858201550155016112c8565b3461026f57604036600319011261026f57600160a060020a036118956141c7565b16600052600660205260406000206024356000526020526040600020805461026b6118c26001840161423d565b926118db60036118d46002840161423d565b920161423d565b9060405194859485614329565b3461026f5760406119456118fb366143bf565b919293906102978651946114da87805161192661070c8a6020809c81809701956106fc8183896142e1565b886000528252600c8b6000200154998b519384928392519283916142e1565b9060005281526005836000200154908351928352820152f35b3461026f57600036600319011261026f5760206103006145a7565b3461026f5761029761029761199061028b3661451a565b90600052602052600b60406000200190600052602052600160a060020a0360406000205416600052600a60205261026b6110ba600160406000200161423d565b3461026f5760a036600319011261026f5767ffffffffffffffff60043581811161026f57611a02903690600401614368565b602491823581811161026f57611a1c903690600401614368565b9160443582811161026f57611a35903690600401614368565b60643583811161026f57611a4d903690600401614368565b9360843584811161026f57611a66903690600401614368565b9433600052602090600a82526040600020906001948583018751898111611e3757611a9182546141dd565b98601f998a8111611f6c575b5086908a8311600114611f0557611ace929160009183611e4f575050816002029160080260020a6000190419161790565b90555b600294858401908051908a8211611eed57611aec83546141dd565b8a8111611ec1575b5086908a8311600114611e5a57611b25929160009183611e4f575050816002029160080260020a6000190419161790565b90555b80516003840191898211611e3757611b4083546141dd565b898111611e0b575b508590898311600114611da457611b79929160009183611ce9575050816002029160080260020a6000190419161790565b90555b80516004830191888211611d8c57611b9483546141dd565b888111611d60575b508490888311600114611cf4579180611bd2926005969594600092611ce9575050816002029160080260020a6000190419161790565b90555b01968651958611611cd25750611beb87546141dd565b848111611c9c575b508093808611600114611c335750505050819061114d93600092611c28575050816002029160080260020a6000190419161790565b015190508480610845565b91949390929584601f1981168960005285600020956000905b8a838310611c825750505010611c67575b5050505002019055005b0151908316600802840a600019041916905584808080611c5d565b858701518955909701969485019488935090810190611c4c565b611cc3908860005282600020838781818b0104830193828b10611cc9575b01040190614590565b87611bf3565b93508293611cba565b60e060020a634e487b710260005260416004526000fd5b015190508d80610845565b87919493928791601f1982169685600052886000209160005b8a8a8210611d475750508360059910611d2d575b50505002019055611bd5565b01516008838d1602840a60001904191690558d8080611d21565b8383015185558d978d9750909401939283019201611d0d565b611d86908460005286600020878b8181880104830193828810611cc95701040190614590565b8b611b9c565b8a60e060020a634e487b710260005260416004526000fd5b9188928892601f1983169186600052896000209260005b8b828210611df25750508411611dd8575b50505002019055611b7c565b01516008838d1602840a60001904191690558d8080611dcc565b8484015186558e988e9850909501949384019301611dbb565b611e31908460005287600020888c8181880104830193828810611cc95701040190614590565b8c611b48565b8b60e060020a634e487b710260005260416004526000fd5b015190508e80610845565b9189928992601f19831691866000528a6000209260005b8c828210611ea85750508411611e8e575b50505002019055611b28565b01516008838e1602840a60001904191690558e8080611e82565b8484015186558f988f9850909501949384019301611e71565b611ee7908460005288600020898d8181880104830193828810611cc95701040190614590565b8d611af4565b8c60e060020a634e487b710260005260416004526000fd5b918991601f1982169085600052896000209160005b8b828210611f5657505094836002959610611f3c575b50505002019055611ad1565b01516008838e1602840a60001904191690558e8080611f30565b8388015185558e96909401939283019201611f1a565b611f92908460005288600020898d8181880104830193828810611cc95701040190614590565b8d611a9d565b3461026f5761016036600319011261026f57611fb26141c7565b60243567ffffffffffffffff811161026f57611fd2903690600401614368565b9060443567ffffffffffffffff811161026f57611ff3903690600401614368565b9060643567ffffffffffffffff811161026f57612014903690600401614368565b60843567ffffffffffffffff811161026f57612034903690600401614368565b9160a43567ffffffffffffffff811161026f57612055903690600401614368565b9060c43567ffffffffffffffff811161026f57612076903690600401614368565b9260e43567ffffffffffffffff811161026f57612097903690600401614368565b966101043567ffffffffffffffff811161026f576120b9903690600401614368565b966101243567ffffffffffffffff811161026f576120db903690600401614368565b916101443567ffffffffffffffff811161026f576120fd903690600401614368565b91600160a060020a0386166000526005602052604060002094612121600254614581565b600255855473ffffffffffffffffffffffffffffffffffffffff1916600160a060020a03881617865580519067ffffffffffffffff8211610b2e5761216960018801546141dd565b601f8111612b7c575b50602090601f8311600114612b09576121a5929160009183611e4f575050816002029160080260020a6000190419161790565b60018601555b80519067ffffffffffffffff8211610b2e576121ca60028701546141dd565b601f8111612ad3575b50602090601f8311600114612a6057612206929160009183611ce9575050816002029160080260020a6000190419161790565b60028501555b80519067ffffffffffffffff8211610b2e5761222b60038601546141dd565b601f8111612a2a575b50602090601f83116001146129b757612267929160009183610e04575050816002029160080260020a6000190419161790565b60038401555b600560068401556001600784015580519067ffffffffffffffff8211610b2e5761229a60058501546141dd565b601f8111612981575b50602090601f831160011461290e576122d6929160009183610ca7575050816002029160080260020a6000190419161790565b60058301555b80519067ffffffffffffffff8211610b2e576122fb60048401546141dd565b601f81116128d8575b50602090601f831160011461285b5782600160a060020a0395949360049361234493600092610e04575050816002029160080260020a6000190419161790565b9101555b16600052600a602052604060002092600184019080519067ffffffffffffffff8211610b2e5761237883546141dd565b601f8111612828575b50602090601f83116001146127bd576123b49291600091836127b2575050816002029160080260020a6000190419161790565b90555b8051600284019167ffffffffffffffff8211610b2e576123d783546141dd565b601f811161277f575b50602090601f831160011461271457612413929160009183610b47575050816002029160080260020a6000190419161790565b90555b8051600383019167ffffffffffffffff8211610b2e5761243683546141dd565b601f81116126e1575b50602090601f8311600114612676576124729291600091836125cb575050816002029160080260020a6000190419161790565b90555b60048101835167ffffffffffffffff8111610b2e5761249482546141dd565b601f8111612643575b506020601f82116001146125d65790806124d392600596976000926125cb575050816002029160080260020a6000190419161790565b90555b019080519067ffffffffffffffff8211610b2e576124f483546141dd565b601f8111612598575b50602090601f83116001146125305761114d929160009183611c28575050816002029160080260020a6000190419161790565b90601f198316918460005260206000209260005b81811061258057509160029391856001969410612565575b50505002019055005b01516008601f841602840a600019041916905584808061255c565b92936020600181928786015181550195019301612544565b6125c5908460005260206000206020601f86010481019160208610610b2457601f60209101040190614590565b836124fd565b015190508780610845565b601f198216958360005260206000209660005b81811061262b57509660029284926001956005999a10612610575b505050020190556124d6565b01516008601f841602840a6000190419169055878080612604565b838301518955600190980197602093840193016125e9565b612670908360005260206000206020601f85010481019160208510610b2457601f60209101040190614590565b8561249d565b90601f198316918460005260206000209260005b8181106126c9575091600293918560019694106126ae575b50505002019055612475565b01516008601f841602840a60001904191690558780806126a2565b9293602060018192878601518155019501930161268a565b61270e908460005260206000206020601f86010481019160208610610b2457601f60209101040190614590565b8661243f565b90601f198316918460005260206000209260005b8181106127675750916002939185600196941061274c575b50505002019055612416565b01516008601f841602840a6000190419169055888080612740565b92936020600181928786015181550195019301612728565b6127ac908460005260206000206020601f86010481019160208610610b2457601f60209101040190614590565b876123e0565b015190508980610845565b90601f198316918460005260206000209260005b818110612810575091600293918560019694106127f5575b505050020190556123b7565b01516008601f841602840a60001904191690558980806127e9565b929360206001819287860151815501950193016127d1565b612855908460005260206000206020601f86010481019160208610610b2457601f60209101040190614590565b88612381565b906004840160005260206000209160005b601f19851681106128c0575083600493600193600293600160a060020a03999897601f198116106128a5575b5050500201910155612348565b01516008601f841602840a60001904191690558c8080612898565b9192602060018192868501518155019401920161286c565b612908906004850160005260206000206020601f86010481019160208610610b2457601f60209101040190614590565b89612304565b906005850160005260206000209160005b601f19851681106129695750918391600293600195601f1981161061294e575b505050020160058301556122dc565b01516008601f841602840a60001904191690558b808061293f565b9192602060018192868501518155019401920161291f565b6129b1906005860160005260206000206020601f86010481019160208610610b2457601f60209101040190614590565b8a6122a3565b906003860160005260206000209160005b601f1985168110612a125750918391600293600195601f198116106129f7575b5050500201600384015561226d565b01516008601f841602840a60001904191690558c80806129e8565b919260206001819286850151815501940192016129c8565b612a5a906003870160005260206000206020601f86010481019160208610610b2457601f60209101040190614590565b8b612234565b906002870160005260206000209160005b601f1985168110612abb5750918391600293600195601f19811610612aa0575b5050500201600285015561220c565b01516008601f841602840a60001904191690558d8080612a91565b91926020600181928685015181550194019201612a71565b612b03906002880160005260206000206020601f86010481019160208610610b2457601f60209101040190614590565b8c6121d3565b906001880160005260206000209160005b601f1985168110612b645750918391600293600195601f19811610612b49575b505050020160018601556121ab565b01516008601f841602840a60001904191690558e8080612b3a565b91926020600181928685015181550194019201612b1a565b612bac906001890160005260206000206020601f86010481019160208610610b2457601f60209101040190614590565b8d612172565b3461026f57610297612bd3610297612bc9366143bf565b9592939093614422565b90600052602052602060ff600a60406000200154166040519015158152f35b3461026f57600036600319011261026f576020600254604051908152f35b3461026f57604036600319011261026f57612c296141c7565b600160a060020a0380911660005260076020526040600020602435600052602052604060002090815490612cbe612c626001850161423d565b93612cb0612c726002830161423d565b936004612c816003850161423d565b9301541693612ca2604051978897885260a0602089015260a0880190614304565b908682036040880152614304565b908482036060860152614304565b9060808301520390f35b3461026f5761012036600319011261026f57612ce26141c7565b60243567ffffffffffffffff811161026f57612d02903690600401614368565b9060443567ffffffffffffffff811161026f57612d23903690600401614368565b9060643567ffffffffffffffff811161026f57612d44903690600401614368565b60843567ffffffffffffffff811161026f57612d64903690600401614368565b9160a43567ffffffffffffffff811161026f57612d85903690600401614368565b9060c43567ffffffffffffffff811161026f57612da6903690600401614368565b9260e43567ffffffffffffffff811161026f57612dc7903690600401614368565b966101043567ffffffffffffffff811161026f57612de9903690600401614368565b96600160a060020a0384166000526004602052604060002092612e0d600154614581565b600155835473ffffffffffffffffffffffffffffffffffffffff1916600160a060020a03861617845580519067ffffffffffffffff8211610b2e57612e5560018601546141dd565b601f8111613614575b50602090601f83116001146135a157612e91929160009183610e04575050816002029160080260020a6000190419161790565b60018401555b80519067ffffffffffffffff8211610b2e57612eb660028501546141dd565b601f811161356b575b50602090601f83116001146134f857612ef2929160009183610ca7575050816002029160080260020a6000190419161790565b60028301555b80519067ffffffffffffffff8211610b2e57612f1760038401546141dd565b601f81116134c2575b50602090601f83116001146134455782600160a060020a03959493600393612f6093600092610e04575050816002029160080260020a6000190419161790565b9101555b16600052600a602052604060002092600184019080519067ffffffffffffffff8211610b2e57612f9483546141dd565b601f8111613412575b50602090601f83116001146133a757612fd09291600091836127b2575050816002029160080260020a6000190419161790565b90555b8051600284019167ffffffffffffffff8211610b2e57612ff383546141dd565b601f8111613374575b50602090601f83116001146133095761302f929160009183610b47575050816002029160080260020a6000190419161790565b90555b8051600383019167ffffffffffffffff8211610b2e5761305283546141dd565b601f81116132d6575b50602090601f831160011461326b5761308e9291600091836125cb575050816002029160080260020a6000190419161790565b90555b60048101835167ffffffffffffffff8111610b2e576130b082546141dd565b601f8111613238575b506020601f82116001146131cb5790806130ef92600596976000926125cb575050816002029160080260020a6000190419161790565b90555b019080519067ffffffffffffffff8211610b2e5761311083546141dd565b601f8111613198575b50602090601f831160011461314c5761114d929160009183611c28575050816002029160080260020a6000190419161790565b90601f198316918460005260206000209260005b818110613180575091600293918560019694106125655750505002019055005b92936020600181928786015181550195019301613160565b6131c5908460005260206000206020601f86010481019160208610610b2457601f60209101040190614590565b83613119565b601f198216958360005260206000209660005b81811061322057509660029284926001956005999a10613205575b505050020190556130f2565b01516008601f841602840a60001904191690558780806131f9565b838301518955600190980197602093840193016131de565b613265908360005260206000206020601f85010481019160208510610b2457601f60209101040190614590565b856130b9565b90601f198316918460005260206000209260005b8181106132be575091600293918560019694106132a3575b50505002019055613091565b01516008601f841602840a6000190419169055878080613297565b9293602060018192878601518155019501930161327f565b613303908460005260206000206020601f86010481019160208610610b2457601f60209101040190614590565b8661305b565b90601f198316918460005260206000209260005b81811061335c57509160029391856001969410613341575b50505002019055613032565b01516008601f841602840a6000190419169055888080613335565b9293602060018192878601518155019501930161331d565b6133a1908460005260206000206020601f86010481019160208610610b2457601f60209101040190614590565b87612ffc565b90601f198316918460005260206000209260005b8181106133fa575091600293918560019694106133df575b50505002019055612fd3565b01516008601f841602840a60001904191690558980806133d3565b929360206001819287860151815501950193016133bb565b61343f908460005260206000206020601f86010481019160208610610b2457601f60209101040190614590565b88612f9d565b906003840160005260206000209160005b601f19851681106134aa575083600393600193600293600160a060020a03999897601f1981161061348f575b5050500201910155612f64565b01516008601f841602840a60001904191690558c8080613482565b91926020600181928685015181550194019201613456565b6134f2906003850160005260206000206020601f86010481019160208610610b2457601f60209101040190614590565b89612f20565b906002850160005260206000209160005b601f19851681106135535750918391600293600195601f19811610613538575b50505002016002830155612ef8565b01516008601f841602840a60001904191690558b8080613529565b91926020600181928685015181550194019201613509565b61359b906002860160005260206000206020601f86010481019160208610610b2457601f60209101040190614590565b8a612ebf565b906001860160005260206000209160005b601f19851681106135fc5750918391600293600195601f198116106135e1575b50505002016001840155612e97565b01516008601f841602840a60001904191690558c80806135d2565b919260206001819286850151815501940192016135b2565b613644906001870160005260206000206020601f86010481019160208610610b2457601f60209101040190614590565b8b612e5e565b3461026f57600036600319011261026f57336000526136fc6020600a815261026b61367b600160406000200161423d565b9133600052600a8152613725613697600260406000200161423d565b9133600052600a81526137176136b3600360406000200161423d565b33600052600a83526137096136ce600460406000200161423d565b9333600052600a81526136e7600560406000200161423d565b966040519a8b9a60a08c5260a08c0190614304565b918a8303908b0152614304565b908782036040890152614304565b908582036060870152614304565b908382036080850152614304565b3461026f5760208060031936011261026f576004353360005260068252604060002081600052825261026b60406000205433600052600684526040600020836000528452613787600160406000200161423d565b92336000526006855260406000208160005285526137ab600260406000200161423d565b9433600052600681526040600020916000525261025f600360406000200161423d565b3461026f576137dc3661451a565b929091604051936138046137fe868881815161126a8160209c8d8096016142e1565b83614448565b8460005285526040600020936001918260ff600a88015416151503613b9857600c860190600b8254970187600052808952604060002033600160a060020a031982541617905533600052600a89526007604060002001549760005288526040600020968488015560028097015561387b8154614581565b905533600052600886526040600020600a8752600760406000200154600052865260406000209081558181019387519467ffffffffffffffff95868111610b2e576138c682546141dd565b99601f9a8b8111613b6b575b5089908b8311600114613af957613903929160009183610e04575050816002029160080260020a6000190419161790565b90555b805182870191868211610b2e5761391d83546141dd565b8a8111613acd575b5088908a8311600114613a5f57918061395b926003969594600092610e04575050816002029160080260020a6000190419161790565b90555b01938251938411610b2e5761397385546141dd565b878111613a33575b5085968085116001146139cc575050509080600a956139b293600092610a7a575050816002029160080260020a6000190419161790565b90555b3360005252600760406000200161114d8154614581565b601f9492949391931983169786600052876000209260005b8a8110613a1e575084600a9a10613a03575b50505050020190556139b5565b0151908316600802840a6000190419169055868080806139f6565b818301518555938701939189019189016139e4565b613a59908660005287600020888a81818a0104830193828a10611cc95701040190614590565b8761397b565b85919493928991601f19821696856000528c600020918d6000905b8a8210613ab35750508360039910613a99575b5050500201905561395e565b01516008838f1602840a60001904191690558c8080613a8d565b8383015185558b978f97509094019392830192018e613a7a565b613af390846000528a6000208b8d8181880104830193828810611cc95701040190614590565b8a613925565b918a8a928894601f1984168760005283600020936000905b828210613b475750508411613b2d575b50505002019055613906565b01516008838f1602840a60001904191690558c8080613b21565b9294848493959850869992979901518155019501930191899593918d95938f613b11565b613b9290846000528c8c80600020918181880104830193828810611cc95701040190614590565b8b6138d2565b6084876040519060e560020a62461bcd0282526004820152602560248201527f546869732070726f7065727479206973204e4f54206d61726b656420666f722060448201527f73616c65210000000000000000000000000000000000000000000000000000006064820152fd5b3461026f57600036600319011261026f5733600052600a6020526040806000206007600682015491015482519182526020820152f35b3461026f5760208060031936011261026f576004359033600052600681526040600020826000528152613c74600160406000200161423d565b9133600052600682526040600020816000528252613c98600260406000200161423d565b33600052600683526040600020826000528352613cbb600360406000200161423d565b91336000526006845260406000209060005283526040600020549360405190613cf461176982519387818186019661126a81838a6142e1565b86600052855260ff600a6040600020015416613d4457916114da8561029793613d2996956040519384928392519283916142e1565b6000928352905260409020600a01805460ff19166001179055005b6084856040519060e560020a62461bcd0282526004820152602160248201527f50726f706572747920616c7265616479206d61726b656420617661696c61626c60448201527f65000000000000000000000000000000000000000000000000000000000000006064820152fd5b3461026f57602036600319011261026f57600160a060020a0380613dd36141c7565b16600052600460205260406000209081541661026b613df46001840161423d565b92613e3b613e106003613e096002850161423d565b930161423d565b91613e2d6040519687968752608060208801526080870190614304565b908582036040870152614304565b908382036060850152614304565b3461026f57610297610297613e6061028b3661451a565b90600052602052600b604060002001906000526020526020600160a060020a0360406000205416604051908152f35b3461026f5760208060031936011261026f576004353360005260088252604060002081600052825261026b60406000205433600052600884526040600020836000528452613ee3600160406000200161423d565b9233600052600885526040600020816000528552613f07600260406000200161423d565b9433600052600881526040600020916000525261025f600360406000200161423d565b3461026f57600036600319011261026f576020600160a060020a0360005416604051908152f35b3461026f57602036600319011261026f57600160a060020a0380613f736141c7565b16600052600560205260406000209081541661026b613f946001840161423d565b92613fa16002820161423d565b90613fae6003820161423d565b613fba6004830161423d565b613fc66005840161423d565b9160076006850154940154946040519889988961446e565b3461026f57602036600319011261026f57600160a060020a03613fff6141c7565b16600052600560205261026b6110ba600460406000200161423d565b3461026f57602036600319011261026f57600160a060020a038061403d6141c7565b16600052600a60205260406000209081541661026b613f946001840161423d565b3461026f576114da6140906020610297614077366143bf565b96919285604096929651938285809451938492016142e1565b906000526020526040600020600160a060020a039081815416906140b66001820161423d565b926140c36002830161423d565b90600383015416916140d76004820161423d565b600582015493600683015460078401549061414960ff60088701541693600987015495614136600c60ff600a8b015416990154996141286040519e8f9e8f6101809181528160208201520190614304565b8d810360408f015290614304565b9160608c01528a820360808c0152614304565b9660a089015260c088015260e0870152151561010086015261012085015215156101408401526101608301520390f35b3461026f57604036600319011261026f57600160a060020a0361419a6141c7565b16600052600860205260406000206024356000526020526040600020805461026b6118c26001840161423d565b60043590600160a060020a038216820361026f57565b9060016002830492168015614211575b60208310146141f857565b60e060020a634e487b7102600052602260045260246000fd5b91607f16916141ed565b90601f8019910116810190811067ffffffffffffffff821117610b2e57604052565b90604051918260008254614250816141dd565b908184526020946001916001811690816000146142c05750600114614281575b50505061427f9250038361421b565b565b600090815285812095935091905b8183106142a857505061427f9350820101388080614270565b8554888401850152948501948794509183019161428f565b9250505061427f94925060ff19168284015215158102820101388080614270565b60005b8381106142f45750506000910152565b81810151838201526020016142e4565b9060209161431d815180928185528580860191016142e1565b601f01601f1916010190565b926143496143659593614357938652608060208701526080860190614304565b908482036040860152614304565b916060818403910152614304565b90565b81601f8201121561026f5780359067ffffffffffffffff8211610b2e576040519261439d601f8401601f19166020018561421b565b8284526020838301011161026f57816000926020809301838601378301015290565b608060031982011261026f5767ffffffffffffffff9160043583811161026f57826143ec91600401614368565b9260243581811161026f578361440491600401614368565b9260443591821161026f5761441b91600401614368565b9060643590565b602061443b9181604051938285809451938492016142e1565b8101600981520301902090565b6020906144629282604051948386809551938492016142e1565b82019081520301902090565b94906144df946144b560e098956144a76144d1966144c3959e9d9c9e600160a060020a0361010091168c528060208d01528b0190614304565b9089820360408b0152614304565b908782036060890152614304565b908582036080870152614304565b9083820360a0850152614304565b9460c08201520152565b949392612ca26060936145076145159460808a5260808a0190614304565b9088820360208a0152614304565b930152565b60a060031982011261026f5767ffffffffffffffff9160043583811161026f578261454791600401614368565b9260243581811161026f578361455f91600401614368565b9260443591821161026f5761457691600401614368565b906064359060843590565b60001981146111515760010190565b81811061459b575050565b60008155600101614590565b33600052600460205233600160a060020a0360406000205416146000146145cd57600190565b600090565b6145dc81546141dd565b90816145e6575050565b81601f600093116001146145f8575055565b9080839182526146166020601f818520950104840160018501614590565b5555565b600092918154614629816141dd565b926001918083169081156146835750600114614646575b50505050565b9091929394506000526020906020600020906000915b8583106146725750505050019038808080614640565b80548584015291830191810161465c565b60ff1916845250505081151590910201915038808080614640565b33600052600560205233600160a060020a0360406000205416146000146145cd57600190565b92916146e69061029760409360405160208189516114da818385809e016142e1565b60009283526020526040822090600c82015480156147405791600b01835b8381106147145750505050905090565b80855281865233600160a060020a0384872054161461473557600101614704565b505050505050600190565b50505090509056fea2646970667358221220621fee35a49e73cf8db8b449d3358cf239d011b7472055db4a04820de2ba450164736f6c63430008170033",
  "immutableReferences": {},
  "source": "// SPDX-License-Identifier: MIT\n\npragma solidity >=0.5.0 <0.9.0;\n\ncontract Registry {\n    address public superAdmin;\n    uint256 public totalAdmins;\n    uint256 public totalVendors;\n    uint256 public totalTendors = 1000;\n\n    struct Admin {\n        address adminAddress;\n        string city;\n        string district;\n        string state;\n    }\n\n    struct Vendor {\n        address vendorAddress;\n        string city;\n        string district;\n        string state;\n        string year;\n        string vendortype;\n        uint256 rating;\n        uint256 noofRaters;\n    }\n\n    struct LandDetails {\n        address owner;\n        string tendertype;\n        string tenderName;\n        address admin;\n        string ipfsuri;\n        uint256 propertyId;\n        uint256 surveyNumber;\n        uint256 index;\n        bool registered;\n        uint256 marketValue;\n        bool markAvailable;\n        mapping(uint256 => RequestDetails) requests; // reqNo => RequestDetails\n        uint256 noOfRequests; // other users requested to this land\n    }\n\n\n\n    struct UserProfile {\n        address userAddr;\n        string fullName;\n        string gender;\n        string email;\n        string contact;\n        string residentialAddr;\n        uint256 totalIndices;\n        uint256 requestIndices; // this user requested to other lands\n    }\n\n    struct OwnerOwns {\n        uint256 surveyNumber;\n        string state;\n        string district;\n        string city;\n    }\n\n    struct AdminOwns {\n        uint256 surveyNo;\n        string state;\n        string district;\n        string city;\n        address AllocatedTo;\n    }\n\n    struct RequestedLands {\n        uint256 surveyNumber;\n        string state;\n        string district;\n        string city;\n    }\n\n    struct RequestDetails {\n        address whoRequested;\n        uint256 reqIndex;\n        uint256 BidAmount;\n    }\n\n    mapping(address => Admin) public admins;\n    mapping(address => Vendor) public vendors;\n    mapping(address => mapping(uint256 => OwnerOwns)) public ownerMapsProperty;\n    mapping(address => mapping(uint256 => AdminOwns)) public adminMapsProperty; // ownerAddr => index no. => OwnerOwns\n    mapping(address => mapping(uint256 => RequestedLands))\n        public requestedLands; // ownerAddr => reqIndex => RequestedLands\n    mapping(string => mapping(string => mapping(string => mapping(uint256 => LandDetails))))\n        public landDetalsMap; // state => district => city => surveyNo => LandDetails\n    mapping(address => UserProfile) public userProfile;\n\n    constructor() {\n        superAdmin = msg.sender;\n    }\n\n    modifier onlyAdmin() {\n        require(\n            admins[msg.sender].adminAddress == msg.sender,\n            \"Only admin can Register land\"\n        );\n        _;\n    }\n\n    // SuperAdmin: Registers new admin\n    function addAdmin(\n        address _adminAddr,\n        string memory _state,\n        string memory _district,\n        string memory _city,\n        string memory _fullName,\n        string memory _gender,\n        string memory _email,\n        string memory _contact,\n        string memory _residentialAddr\n    ) external {\n        Admin storage newAdmin = admins[_adminAddr];\n        totalAdmins++;\n\n        newAdmin.adminAddress = _adminAddr;\n        newAdmin.city = _city;\n        newAdmin.district = _district;\n        newAdmin.state = _state;\n\n        UserProfile storage newUserProfile = userProfile[_adminAddr];\n\n        newUserProfile.fullName = _fullName;\n        newUserProfile.gender = _gender;\n        newUserProfile.email = _email;\n        newUserProfile.contact = _contact;\n        newUserProfile.residentialAddr = _residentialAddr;\n    }\n\n    function addVendor(\n        address _vendorAddr,\n        string memory _state,\n        string memory _district,\n        string memory _city,\n        string memory _fullName,\n        string memory _gender,\n        string memory _email,\n        string memory _contact,\n        string memory _residentialAddr,\n        string memory _year,\n        string memory _vendortype\n    ) external {\n        Vendor storage newVendor = vendors[_vendorAddr];\n        totalVendors++;\n\n        newVendor.vendorAddress = _vendorAddr;\n        newVendor.city = _city;\n        newVendor.district = _district;\n        newVendor.state = _state;\n        newVendor.rating = 5;\n        newVendor.noofRaters = 1;\n        newVendor.vendortype = _vendortype;\n        newVendor.year = _year;\n\n        UserProfile storage newUserProfile = userProfile[_vendorAddr];\n\n        newUserProfile.fullName = _fullName;\n        newUserProfile.gender = _gender;\n        newUserProfile.email = _email;\n        newUserProfile.contact = _contact;\n        newUserProfile.residentialAddr = _residentialAddr;\n    }\n\n    //function Give Rating\n    function GiveRating(address _vendortorating, uint256 _ratenumber) public {\n        vendors[_vendortorating].rating =\n            vendors[_vendortorating].rating +\n            _ratenumber;\n        vendors[_vendortorating].noofRaters++;\n    }\n\n    // check if it is admin\n    function isAdmin() external view returns (bool) {\n        if (admins[msg.sender].adminAddress == msg.sender) {\n            return true;\n        } else return false;\n    }\n\n    //Chekc if it is Vendor\n    function isVendor() external view returns (bool) {\n        if (vendors[msg.sender].vendorAddress == msg.sender) {\n            return true;\n        } else return false;\n    }\n\n    // Admin: registers land\n    function registerLand(\n        string memory _state,\n        string memory _district,\n        string memory _city,\n        uint256 _propertyId,\n        uint256 _surveyNo,\n        address _owner,\n        uint256 _marketValue,\n        string memory _tenderName,\n        string memory _tendertype,\n        string memory _ipfsuri\n    ) external onlyAdmin {\n        require(\n            keccak256(abi.encodePacked(admins[msg.sender].state)) ==\n                keccak256(abi.encodePacked(_state)) &&\n                keccak256(abi.encodePacked(admins[msg.sender].district)) ==\n                keccak256(abi.encodePacked(_district)) &&\n                keccak256(abi.encodePacked(admins[msg.sender].city)) ==\n                keccak256(abi.encodePacked(_city)),\n            \"Admin can only register land of same city.\"\n        );\n\n        require(\n            landDetalsMap[_state][_district][_city][totalTendors].registered ==\n                false,\n            \"Survey Number already registered!\"\n        );\n\n        LandDetails storage newLandRegistry = landDetalsMap[_state][_district][\n            _city\n        ][totalTendors];\n\n        OwnerOwns storage newOwnerOwns = ownerMapsProperty[msg.sender][\n            userProfile[msg.sender].totalIndices\n        ];\n\n        AdminOwns storage newAdminOwns = adminMapsProperty[msg.sender][\n            userProfile[msg.sender].totalIndices\n        ];\n\n        newLandRegistry.owner = _owner;\n        newLandRegistry.admin = msg.sender;\n        newLandRegistry.propertyId = totalTendors;\n        newLandRegistry.surveyNumber = totalTendors;\n        newLandRegistry.index = userProfile[_owner].totalIndices;\n        newLandRegistry.registered = true;\n        newLandRegistry.marketValue = _marketValue;\n        newLandRegistry.markAvailable = true;\n        newLandRegistry.tenderName = _tenderName;\n        newLandRegistry.tendertype = _tendertype;\n        newLandRegistry.ipfsuri =_ipfsuri;\n\n        newOwnerOwns.surveyNumber = totalTendors;\n        newOwnerOwns.state = _state;\n        newOwnerOwns.district = _district;\n        newOwnerOwns.city = _city;\n\n        userProfile[_owner].totalIndices++;\n\n        totalTendors++;\n    }\n\n    // User_1: set user profile\n    function setUserProfile(\n        string memory _fullName,\n        string memory _gender,\n        string memory _email,\n        string memory _contact,\n        string memory _residentialAddr\n    ) public {\n        UserProfile storage newUserProfile = userProfile[msg.sender];\n\n        newUserProfile.fullName = _fullName;\n        newUserProfile.gender = _gender;\n        newUserProfile.email = _email;\n        newUserProfile.contact = _contact;\n        newUserProfile.residentialAddr = _residentialAddr;\n    }\n\n    // User_1: mark property available\n    function markMyPropertyAvailable(uint256 indexNo) external {\n        string memory state = ownerMapsProperty[msg.sender][indexNo].state;\n        string memory district = ownerMapsProperty[msg.sender][indexNo]\n            .district;\n        string memory city = ownerMapsProperty[msg.sender][indexNo].city;\n        uint256 surveyNumber = ownerMapsProperty[msg.sender][indexNo]\n            .surveyNumber;\n\n        require(\n            landDetalsMap[state][district][city][surveyNumber].markAvailable ==\n                false,\n            \"Property already marked available\"\n        );\n\n        landDetalsMap[state][district][city][surveyNumber].markAvailable = true;\n    }\n\n    // User_2: Request for buy  ownerAddress & index = arguements\n    function RequestForBuy(\n        string memory _state,\n        string memory _district,\n        string memory _city,\n        uint256 _surveyNo,\n        uint256 _BidAmount\n    ) external {\n        LandDetails storage thisLandDetail = landDetalsMap[_state][_district][\n            _city\n        ][_surveyNo];\n        require(\n            thisLandDetail.markAvailable == true,\n            \"This property is NOT marked for sale!\"\n        );\n\n        uint256 req_serialNum = thisLandDetail.noOfRequests;\n        thisLandDetail.requests[req_serialNum].whoRequested = msg.sender;\n        thisLandDetail.requests[req_serialNum].reqIndex = userProfile[\n            msg.sender\n        ].requestIndices;\n        thisLandDetail.requests[req_serialNum].BidAmount = _BidAmount;\n        thisLandDetail.noOfRequests++;\n\n        // adding requested land to user_2 profile\n        RequestedLands storage newReqestedLands = requestedLands[msg.sender][\n            userProfile[msg.sender].requestIndices\n        ];\n        newReqestedLands.surveyNumber = _surveyNo;\n        newReqestedLands.state = _state;\n        newReqestedLands.district = _district;\n        newReqestedLands.city = _city;\n\n        userProfile[msg.sender].requestIndices++;\n    }\n\n    // User_1: Accept the buy request; sell.\n    function AcceptRequest(uint256 _index, uint256 _reqNo) public {\n        uint256 _surveyNo = ownerMapsProperty[msg.sender][_index].surveyNumber;\n        string memory _state = ownerMapsProperty[msg.sender][_index].state;\n        string memory _district = ownerMapsProperty[msg.sender][_index]\n            .district;\n        string memory _city = ownerMapsProperty[msg.sender][_index].city;\n\n        // updating LandDetails\n        address newOwner = landDetalsMap[_state][_district][_city][\n            _surveyNo\n        ].requests[_reqNo].whoRequested;\n\n        uint256 newOwner_reqIndex = landDetalsMap[_state][_district][_city][\n            _surveyNo\n        ].requests[_reqNo].reqIndex;\n\n        uint256 noOfReq = landDetalsMap[_state][_district][_city][_surveyNo]\n            .noOfRequests;\n\n        // deleting requested land from all requesters AND removing all incoming requests\n        for (uint256 i = 0; i < noOfReq; i++) {\n            address requesterAddr = landDetalsMap[_state][_district][_city][\n                _surveyNo\n            ].requests[i].whoRequested;\n            uint256 requester_reqIndx = landDetalsMap[_state][_district][_city][\n                _surveyNo\n            ].requests[i].reqIndex;\n\n            delete requestedLands[requesterAddr][requester_reqIndx];\n            delete landDetalsMap[_state][_district][_city][_surveyNo].requests[\n                i\n            ];\n        }\n\n        landDetalsMap[_state][_district][_city][_surveyNo].owner = newOwner;\n        landDetalsMap[_state][_district][_city][_surveyNo]\n            .markAvailable = false;\n        landDetalsMap[_state][_district][_city][_surveyNo].noOfRequests = 0;\n\n        // deleting property from user_1's ownerMapsProperty\n        // delete ownerMapsProperty[msg.sender][_index];\n\n        // adding ownerMapsProperty for newOwner\n        uint256 newOwnerTotProp = userProfile[newOwner].totalIndices;\n        OwnerOwns storage newOwnerOwns = ownerMapsProperty[newOwner][\n            newOwnerTotProp\n        ];\n\n        newOwnerOwns.surveyNumber = _surveyNo;\n        newOwnerOwns.state = _state;\n        newOwnerOwns.district = _district;\n        newOwnerOwns.city = _city;\n\n        landDetalsMap[_state][_district][_city][_surveyNo]\n            .index = newOwnerTotProp;\n\n        userProfile[newOwner].totalIndices++;\n    }\n\n    //******* GETTERS **********\n\n    // return land details\n    function getLandDetails(\n        string memory _state,\n        string memory _district,\n        string memory _city,\n        uint256 _surveyNo\n    )\n        external\n        view\n        returns (\n            address,\n            uint256,\n            uint256,\n            uint256,\n            string memory,\n            string memory,\n            string memory \n        )\n    {\n        address owner = landDetalsMap[_state][_district][_city][_surveyNo]\n            .owner;\n        uint256 propertyid = landDetalsMap[_state][_district][_city][_surveyNo]\n            .propertyId;\n        uint256 indx = landDetalsMap[_state][_district][_city][_surveyNo].index;\n\n        uint256 mv = landDetalsMap[_state][_district][_city][_surveyNo]\n            .marketValue;\n\n        string  memory tendorName= landDetalsMap[_state][_district][_city][_surveyNo]\n            .tenderName;\n\n        string memory tendortype= landDetalsMap[_state][_district][_city][_surveyNo]\n            .tendertype;\n\n        string memory ipfsuri= landDetalsMap[_state][_district][_city][_surveyNo]\n            .ipfsuri;\n        \n        return (owner, propertyid, indx, mv,tendorName,tendortype,ipfsuri);\n    }\n\n    function getRequestCnt_propId(\n        string memory _state,\n        string memory _district,\n        string memory _city,\n        uint256 _surveyNo\n    ) external view returns (uint256, uint256) {\n        uint256 _noOfRequests = landDetalsMap[_state][_district][_city][\n            _surveyNo\n        ].noOfRequests;\n        uint256 _propertyId = landDetalsMap[_state][_district][_city][_surveyNo]\n            .propertyId;\n        return (_noOfRequests, _propertyId);\n    }\n\n    function getRequesterDetail(\n        string memory _state,\n        string memory _district,\n        string memory _city,\n        uint256 _surveyNo,\n        uint256 _reqIndex\n    )\n        external\n        view\n        returns (\n            address\n        )\n    {\n        address requester = landDetalsMap[_state][_district][_city][_surveyNo]\n            .requests[_reqIndex]\n            .whoRequested;\n\n        return (requester);\n    }\n\n    function getRequesterBidAmount(\n        string memory _state,\n        string memory _district,\n        string memory _city,\n        uint256 _surveyNo,\n        uint256 _reqIndex\n    )\n        external\n        view\n        returns (\n            uint256\n        )\n    {\n\n        uint256 BidAmount = landDetalsMap[_state][_district][_city][_surveyNo]\n            .requests[_reqIndex]\n            .BidAmount;\n\n        return (BidAmount);\n    }\n\n    function getRequesterName(\n        string memory _state,\n        string memory _district,\n        string memory _city,\n        uint256 _surveyNo,\n        uint256 _reqIndex\n    )\n        external\n        view\n        returns (\n            string memory\n        )\n    {\n        address requester = landDetalsMap[_state][_district][_city][_surveyNo]\n            .requests[_reqIndex]\n            .whoRequested;\n        \n        string memory NameofRequester = userProfile[requester].fullName;\n        return (NameofRequester);\n    }\n\n    function isAvailable(\n        string memory _state,\n        string memory _district,\n        string memory _city,\n        uint256 _surveyNo\n    ) external view returns (bool) {\n        bool available = landDetalsMap[_state][_district][_city][_surveyNo]\n            .markAvailable;\n        return (available);\n    }\n\n    function getOwnerOwns(uint256 indx)\n        external\n        view\n        returns (\n            string memory,\n            string memory,\n            string memory,\n            uint256\n        )\n    {\n        uint256 surveyNo = ownerMapsProperty[msg.sender][indx].surveyNumber;\n        string memory state = ownerMapsProperty[msg.sender][indx].state;\n        string memory district = ownerMapsProperty[msg.sender][indx].district;\n        string memory city = ownerMapsProperty[msg.sender][indx].city;\n\n        return (state, district, city, surveyNo);\n    }\n\n    function getAdminOwns(uint256 indx)\n        external\n        view\n        returns (\n            string memory,\n            string memory,\n            string memory,\n            uint256\n        )\n    {\n        uint256 surveyNo = adminMapsProperty[msg.sender][indx].surveyNo;\n        string memory state = adminMapsProperty[msg.sender][indx].state;\n        string memory district = adminMapsProperty[msg.sender][indx].district;\n        string memory city = adminMapsProperty[msg.sender][indx].city;\n\n        return (state, district, city, surveyNo);\n    }\n\n    function getRequestedLands(uint256 indx)\n        external\n        view\n        returns (\n            string memory,\n            string memory,\n            string memory,\n            uint256\n        )\n    {\n        uint256 surveyNo = requestedLands[msg.sender][indx].surveyNumber;\n        string memory state = requestedLands[msg.sender][indx].state;\n        string memory district = requestedLands[msg.sender][indx].district;\n        string memory city = requestedLands[msg.sender][indx].city;\n\n        return (state, district, city, surveyNo);\n    }\n\n    function getUserProfile()\n        external\n        view\n        returns (\n            string memory,\n            string memory,\n            string memory,\n            string memory,\n            string memory\n        )\n    {\n        string memory fullName = userProfile[msg.sender].fullName;\n        string memory gender = userProfile[msg.sender].gender;\n        string memory email = userProfile[msg.sender].email;\n        string memory contact = userProfile[msg.sender].contact;\n        string memory residentialAddr = userProfile[msg.sender].residentialAddr;\n\n        return (fullName, gender, email, contact, residentialAddr);\n    }\n\n     function getUserName(address _addr)\n        external\n        view\n        returns (\n            string memory\n        )\n    {\n        string memory fullName = userProfile[_addr].fullName;\n\n        return (fullName);\n    }\n\n    function getestablishYear(address _addr)\n        external\n        view\n        returns (\n            string memory\n        )\n    {\n        string memory year = vendors[_addr].year;\n\n        return (year);\n    }\n\n    function getIndices() external view returns (uint256, uint256) {\n        uint256 _totalIndices = userProfile[msg.sender].totalIndices;\n        uint256 _reqIndices = userProfile[msg.sender].requestIndices;\n\n        return (_totalIndices, _reqIndices);\n    }\n\n    function didIRequested(\n        string memory _state,\n        string memory _district,\n        string memory _city,\n        uint256 _surveyNo\n    ) external view returns (bool) {\n        LandDetails storage thisLandDetail = landDetalsMap[_state][_district][\n            _city\n        ][_surveyNo];\n        uint256 _noOfRequests = thisLandDetail.noOfRequests;\n\n        if (_noOfRequests == 0) return (false);\n\n        for (uint256 i = 0; i < _noOfRequests; i++) {\n            if (thisLandDetail.requests[i].whoRequested == msg.sender) {\n                return (true);\n            }\n        }\n\n        return (false);\n    }\n\n    function getTotalTendors()\n    external view returns(uint256)\n    {\n        return(totalTendors);\n    }\n}",
  "sourcePath": "C:\\Users\\hp\\Downloads\\EDI_Blockchain_2k23-master\\EDI_Blockchain_2k23-master\\contracts\\Registry.sol",
  "compiler": {
    "name": "solc",
    "version": "0.8.23+commit.f704f362.Emscripten.clang"
  },
  "schemaVersion": "3.4.15",
  "updatedAt": "2023-11-09T18:48:55.465Z",
  "networkType": "ethereum",
  "devdoc": {
    "kind": "dev",
    "methods": {},
    "version": 1
  },
  "userdoc": {
    "kind": "user",
    "methods": {},
    "version": 1
  }
}